:020000040000FA
:10000000680400206D02000071020000730200000D
:100010007502000077020000790200000000000075
:100020000000000000000000000000007B02000053
:100030007D020000000000007F020000410400007B
:10004000830200008302000083020000830200009C
:10005000830200008302000083020000830200008C
:10006000830200008302000083020000830200007C
:10007000830200008302000083020000830200006C
:10008000830200008302000083020000830200005C
:10009000830200008302000083020000830200004C
:1000A000830200008302000083020000830200003C
:1000B0008302000083020000CD03000083020000E1
:1000C000830200008302000083020000830200001C
:1000D000830200008302000083020000830200000C
:1000E00083020000830200008302000083020000FC
:1000F00083020000830200008302000083020000EC
:1001000083020000830200008302000083020000DB
:1001100083020000830200008302000083020000CB
:1001200083020000830200008302000083020000BB
:1001300083020000830200008302000083020000AB
:1001400000000000000000000000000000000000AF
:10015000830200008302000083020000830200008B
:10016000000000000000000000000000000000008F
:10017000000000000000000000000000000000007F
:10018000000000000000000000000000000000006F
:10019000000000000000000000000000000000005F
:1001A000000000000000000000000000000000004F
:1001B000830200008302000083020000830200002B
:1001C000830200008302000083020000830200001B
:1001D000830200008302000083020000830200000B
:1001E00083020000830200008302000083020000FB
:1001F00083020000830200008302000083020000EB
:10020000830200008302000083020000000000005F
:1002100083020000830200008302000083020000CA
:1002200083020000830200008302000083020000BA
:1002300083020000830200008302000083020000AA
:10024000830200008302000083020000830200009A
:10025000830200008302000083020000830200008A
:1002600083020000830200008302000000F00AB84D
:10027000FEE7FEE7FEE7FEE7FEE7FEE7FEE7FEE756
:10028000FEE7FEE700F002F800F03AF80AA090E876
:10029000000C82448344AAF10107DA4501D100F041
:1002A0002FF8AFF2090EBAE80F0013F0010F18BFD4
:1002B000FB1A43F0010318474003000060030000ED
:1002C000103A24BF78C878C1FAD8520724BF30C882
:1002D00030C144BF04680C60704700000023002454
:1002E00000250026103A28BF78C1FBD8520728BF46
:1002F00030C148BF0B6070471FB51FBD10B510BDA2
:1003000000F029F81146FFF7F7FF00F0D3F800F0EE
:1003100047F803B4FFF7F2FF03BC00F04FF800000A
:1003200072B6704762B67047EFF3108072B67047CE
:1003300080F31088704730BF704702480249014A75
:10034000024B70476800002068040020680000200D
:10035000704770477047754600F02CF8AE460500B0
:100360006946534620F00700854618B020B5FFF7D0
:10037000E4FFBDE820404FF000064FF000074FF0CB
:1003800000084FF0000B21F00701AC46ACE8C009B3
:10039000ACE8C009ACE8C009ACE8C0098D467047BC
:1003A00010B50446AFF300802046BDE81040FFF7CB
:1003B000B0BF000000487047080000200149182025
:1003C000ABBEFEE726000200704700001748006839
:1003D00000F0010070B10120144908310860144890
:1003E0000068B0F57A5F05D911480068A0F57A5029
:1003F0000F4908600D48006800F0100070B110202F
:100400000A49083108600A4800680A49884205D24A
:100410000748006800F57A500549086004480068FC
:100420000549081A05490860704700001454024045
:100430000000002080320200007102000400002051
:100440004FF0E020006920F001004FF0E02108614A
:100450001448006800F0040068B11248006820F0F9
:1004600004001149C1F8FC0310480068401E4FF019
:10047000E02148610CE00B48006840F004000A49A4
:10048000C1F8FC030A480068401E4FF0E0214861B3
:1004900000204FF0E02188610846006940F001002B
:1004A00008617047FC5302400050024004000020E5
:1004B00000000020FFF734FF00F07EF800F006F89F
:1004C000FFF730FF01E0FFF736FFFCE73348006835
:1004D00040F020003249C1F8080100BF2F480068F1
:1004E00000F020002028F9D12E482F490860081D6F
:1004F000006840F01500091D08602C48006840F0B5
:1005000004002A4908600846006820F011000860CD
:1005100025481038006840F0110023491039086060
:100520002148001F006840F015001F49091F08609E
:100530001E481030006820F011001C49103108607E
:100540001A48001D006820F011001849091D0860B4
:10055000081D006820F01100091D0860081D0068D2
:1005600020F01100091D0860112010491C3108609D
:100570000E481030006840F011000C49103108603E
:100580000B48006820F4600040F4800008490860CF
:100590004FF08040074908607047000008E10F40B5
:1005A00000E00F404B434F4C2055024000540240A6
:1005B0001CE400E000E100E000204FF0E0210861D1
:1005C0000B480068401E48610020886109480068A7
:1005D00020F0604040F08040064908604FF0E02085
:1005E000006940F007004FF0E0210861704700000B
:1005F0000400002020ED00E01806000000000020AC
:1006000008000000C00200002006000008000020D2
:1006100060040000DC020000000000000000000098
:040000050000026D88
:00000001FF
