:020000040000FA
:10000000680400206D02000071020000730200000D
:100010007502000077020000790200000000000075
:100020000000000000000000000000007B02000053
:100030007D020000000000007F0200006D0400004F
:1000400083020000CD030000830200008302000051
:10005000830200008302000083020000830200008C
:10006000830200008302000083020000830200007C
:10007000830200008302000083020000830200006C
:10008000830200008302000083020000830200005C
:10009000830200008302000083020000830200004C
:1000A000830200008302000083020000830200003C
:1000B000830200008302000021040000830200008C
:1000C000830200008302000083020000830200001C
:1000D000830200008302000083020000830200000C
:1000E00083020000830200008302000083020000FC
:1000F00083020000830200008302000083020000EC
:1001000083020000830200008302000083020000DB
:1001100083020000830200008302000083020000CB
:1001200083020000830200008302000083020000BB
:1001300083020000830200008302000083020000AB
:1001400000000000000000000000000000000000AF
:10015000830200008302000083020000830200008B
:10016000000000000000000000000000000000008F
:10017000000000000000000000000000000000007F
:10018000000000000000000000000000000000006F
:10019000000000000000000000000000000000005F
:1001A000000000000000000000000000000000004F
:1001B000830200008302000083020000830200002B
:1001C000830200008302000083020000830200001B
:1001D000830200008302000083020000830200000B
:1001E00083020000830200008302000083020000FB
:1001F00083020000830200008302000083020000EB
:10020000830200008302000083020000000000005F
:1002100083020000830200008302000083020000CA
:1002200083020000830200008302000083020000BA
:1002300083020000830200008302000083020000AA
:10024000830200008302000083020000830200009A
:10025000830200008302000083020000830200008A
:1002600083020000830200008302000000F00AB84D
:10027000FEE7FEE7FEE7FEE7FEE7FEE7FEE7FEE756
:10028000FEE7FEE700F002F800F03AF80AA090E876
:10029000000C82448344AAF10107DA4501D100F041
:1002A0002FF8AFF2090EBAE80F0013F0010F18BFD4
:1002B000FB1A43F001031847CC040000EC040000D3
:1002C000103A24BF78C878C1FAD8520724BF30C882
:1002D00030C144BF04680C60704700000023002454
:1002E00000250026103A28BF78C1FBD8520728BF46
:1002F00030C148BF0B6070471FB51FBD10B510BDA2
:1003000000F029F81146FFF7F7FF00F0E7F800F0DA
:1003100047F803B4FFF7F2FF03BC00F04FF800000A
:1003200072B6704762B67047EFF3108072B67047CE
:1003300080F31088704730BF704702480249014A75
:10034000024B70476800002068040020680000200D
:10035000704770477047754600F02CF8AE460500B0
:100360006946534620F00700854618B020B5FFF7D0
:10037000E4FFBDE820404FF000064FF000074FF0CB
:1003800000084FF0000B21F00701AC46ACE8C009B3
:10039000ACE8C009ACE8C009ACE8C0098D467047BC
:1003A00010B50446AFF300802046BDE81040FFF7CB
:1003B000B0BF000000487047080000200149182025
:1003C000ABBEFEE726000200704700000121104A84
:1003D0001170104A1160002001E0411C88B24BF6F8
:1003E0004E318842F9DB0C49496811B1012908D125
:1003F00003E00121094A117007E00021074A11704A
:1004000003E00021054A117000BF00BF70470000E3
:10041000030000201C540040005000400200002057
:10042000002001E0411C88B24BF64E318842F9DBD6
:100430000B490968012902D010290FD106E00121DA
:10044000074A121D1160074A117007E01021044A83
:10045000121D11600121044A117000BF00BF7047D6
:100460001854024001000020000000200E480078CF
:10047000401C0D4908700D48806B80F002000B494C
:1004800088630948007806280CDB4FF0E0200069FB
:1004900020F001004FF0E0210861002002490870BF
:1004A000034908707047000004000020005002401B
:1004B0000500002000B50120054908700548806B43
:1004C00000F0110003498863034800F033F900BDD0
:1004D000050000200050024000127A0000F0A8F849
:1004E00000F04EF8FFF71EFF00243CE01E480078A5
:1004F00048B91CB908201D49886304E0012C02D1C9
:1005000004201A4988631A480078B0B134B91948F0
:10051000007858B1FFF7CEFF012407E0012C05D188
:100520001448007810B9FFF7C5FF002400201049D7
:10053000087011490870114908704CB90E480078CC
:1005400010B1FFF7B7FF012400200C4908700AE042
:10055000012C08D10948007810B1FFF7ABFF002447
:10056000002005490870C1E7050000200050024046
:1005700003000020020000200000002001000020F5
:100580002548006840F002002449C1F8080100BF76
:100590002148006800F002000228F9D120480068D4
:1005A00020F001001E4908601E48006840F001006C
:1005B0001C4908601A481030006820F001001849F2
:1005C000103108601648001D006820F00100144931
:1005D000091D0860081D006840F00100091D086041
:1005E00001200F491C3108600D481030006840F0B0
:1005F00001000B49103108600B48006840F40050BE
:10060000094908600948006840F002004FF0E02105
:10061000C1F800017047000008E10F4000E00F4002
:10062000005400401C55004000E400E000E100E000
:100630003948006840F020003849C1F8080100BF7F
:100640003548006800F020002028F9D134483549A9
:10065000086000BF334800680028FBD13148001D06
:10066000006840F001002F49091D08600020091FA3
:10067000086000BF2B4800680128FBD12A480068A9
:1006800060F011002849086026481038006840F0E2
:1006900011002449103908602248001F006840F00A
:1006A0001F002049091F08601F481030006820F013
:1006B00011001D49103108601B48001D006820F022
:1006C00011001949091D0860081D006820F011007B
:1006D000091D0860081D006820F01100091D086050
:1006E000112011491C3108600F481030006840F09B
:1006F00011000D49103108600C48006840F480007A
:100700000A4908600A48006840F080404FF0E02144
:10071000C1F800017047000008E10F4000E00F4001
:100720004B434F4C20550240005402401CE400E073
:1007300000E100E000214FF0E022916111460969DB
:10074000002111611146096941F00401116111464E
:10075000096941F002011161411E516108490968AE
:1007600021F06041064A11604FF0E021096941F033
:1007700001014FF0E02211610021916170470000FA
:1007800008E400E0A40700000000002008000000CA
:10079000C0020000AC070000080000206004000058
:0C07A000DC02000000000000000000006F
:040000050000026D88
:00000001FF
