:020000040000FA
:10000000680400206D02000071020000730200000D
:100010007502000077020000790200000000000075
:100020000000000000000000000000007B02000053
:100030007D020000000000007F020000810200003D
:10004000830200008302000083020000830200009C
:10005000830200008302000083020000830200008C
:10006000830200008302000083020000830200007C
:10007000830200008302000083020000830200006C
:10008000830200008302000083020000830200005C
:10009000830200008302000083020000830200004C
:1000A000830200008302000083020000830200003C
:1000B0008302000083020000CD03000083020000E1
:1000C000830200008302000083020000830200001C
:1000D000830200008302000083020000830200000C
:1000E00083020000830200008302000083020000FC
:1000F00083020000830200008302000083020000EC
:1001000083020000830200008302000083020000DB
:1001100083020000830200008302000083020000CB
:1001200083020000830200008302000083020000BB
:1001300083020000830200008302000083020000AB
:1001400000000000000000000000000000000000AF
:10015000830200008302000083020000830200008B
:10016000000000000000000000000000000000008F
:10017000000000000000000000000000000000007F
:10018000000000000000000000000000000000006F
:10019000000000000000000000000000000000005F
:1001A000000000000000000000000000000000004F
:1001B000830200008302000083020000830200002B
:1001C000830200008302000083020000830200001B
:1001D000830200008302000083020000830200000B
:1001E00083020000830200008302000083020000FB
:1001F00083020000830200008302000083020000EB
:10020000830200008302000083020000000000005F
:1002100083020000830200008302000083020000CA
:1002200083020000830200008302000083020000BA
:1002300083020000830200008302000083020000AA
:10024000830200008302000083020000830200009A
:10025000830200008302000083020000830200008A
:1002600083020000830200008302000000F00AB84D
:10027000FEE7FEE7FEE7FEE7FEE7FEE7FEE7FEE756
:10028000FEE7FEE700F002F800F03AF80AA090E876
:10029000000C82448344AAF10107DA4501D100F041
:1002A0002FF8AFF2090EBAE80F0013F0010F18BFD4
:1002B000FB1A43F00103184724060000440600001F
:1002C000103A24BF78C878C1FAD8520724BF30C882
:1002D00030C144BF04680C60704700000023002454
:1002E00000250026103A28BF78C1FBD8520728BF46
:1002F00030C148BF0B6070471FB51FBD10B510BDA2
:1003000000F029F81146FFF7F7FF00F087F900F039
:1003100047F803B4FFF7F2FF03BC00F04FF800000A
:1003200072B6704762B67047EFF3108072B67047CE
:1003300080F31088704730BF704702480249014A75
:10034000024B70476800002068040020680000200D
:10035000704770477047754600F02CF8AE460500B0
:100360006946534620F00700854618B020B5FFF7D0
:10037000E4FFBDE820404FF000064FF000074FF0CB
:1003800000084FF0000B21F00701AC46ACE8C009B3
:10039000ACE8C009ACE8C009ACE8C0098D467047BC
:1003A00010B50446AFF300802046BDE81040FFF7CB
:1003B000B0BF000000487047040000200149182029
:1003C000ABBEFEE726000200704700004FF0E020C1
:1003D000006940F001004FF0E021086100BF4FF0DC
:1003E000E020006900F48030B0F5803FF7D14FF095
:1003F000E020006920F001004FF0E02108610020BA
:1004000088618048006800F00F000F280ED18C2012
:100410007D4908607C49A039086640F60C007A499D
:10042000091D08607849A03948660DE0C820764962
:1004300008607549A039086640F608407249091DF0
:1004400008607149A039486670480068102856D184
:100450006E49091D08606E480078401C6C490870A0
:1004600008460078052801DB0020087068480078FD
:1004700005283FD2DFE800F0030F1B27330044F2CA
:100480004F606149091F0860091F08605E49A03973
:10049000C865886532E048F69F405B49091F0860DF
:1004A000091F08605849A039C865886526E04BF6E1
:1004B0007F305549091F0860091F08605249A0395B
:1004C000C86588651AE04EF28F204F49091F086001
:1004D000091F08604C49A039C86588650EE00120F5
:1004E0004949091F0860091F08604749A039C865C4
:1004F000886503E000204649087000BF20E04348BB
:100500000068012818D14149091D08603D4800686C
:1005100000F00F000F2807D13A48006820F00F00C4
:100520003C49C1F8FC030BE03648006840F00F007E
:100530003849C1F8FC0303E011203449091D086063
:1005400033480078042822D12E48006800F00F00BC
:100550000F280ED18C202C4908602B49A039086641
:1005600040F60C002849091D08602749A039486653
:100570000DE0C820244908602349A039086640F6E8
:1005800008402149091D08601F49A03948662048D4
:10059000007804280FD11D481C38006820F00E0098
:1005A0001D49C1F8FC030846D0F8FC0340F00200E6
:1005B000C1F8FC0324E01348006800F00F000F2886
:1005C0000FD112481C38006820F00E001249C1F803
:1005D000FC030846D0F8FC0340F00800C1F8FC0317
:1005E0000EE00A481C38006820F00E000A49C1F8E5
:1005F000FC030846D0F8FC0340F00400C1F8FC03FB
:1006000070470000FC530040A08002401854024094
:10061000000000200050004000500240A048006848
:1006200040F480109F49C1F8000100BF9C48006859
:1006300000F48010B0F5801FF8D1994808300068A8
:1006400040F022009749C1F8080100BF94480830E3
:10065000006800F022002228F8D19348006840F09A
:1006600001009149086000BF8F48006800F0010058
:100670000028F9D08B48006F40F000408949086796
:100680000846006F40F4006008670846006E20F4DA
:10069000F86008660846006E40F4A86008660846E0
:1006A000006F20F0700008670846006F20F40050CB
:1006B00008670846006F40F0804008670846006FF2
:1006C00020F0FC5008670846006F40F06070086733
:1006D00000BF7448006D00F040004028F9D1714817
:1006E000006F20F400606F49086700BF6F487049D1
:1006F0000860084600680028F8D1081D006840F02E
:100700000100091D086000BF002069490860084613
:1007100000680028F8D06748006820F0FF006549AD
:1007200008600846006840F0F00008606248006811
:1007300080B26149086008460068604908435E4924
:1007400008605C482038006840F00F0059492039A3
:10075000086059481038006840F0FF0056491039C9
:1007600008605048006E40F480104E490866084604
:10077000006E20F46020086600205149086050494E
:10078000803908648C204E49203108604C498039FA
:10079000086640F60C004A4924310860484980390F
:1007A00048664EF65F20464910310860444980395A
:1007B000086544F24F6042491C310860091F086017
:1007C0003F498039C86588650846006C40F00100E3
:1007D00008640846D0F8800040F00100C1F88000AD
:1007E0000846806840F00F0088603648006820F0B6
:1007F0001F00344908600846006840F00E00086099
:100800002B481038006840F0110029491039086061
:100810002748001F006840F01F002549091F086095
:1008200028481030006820F0110026491031086077
:10083000112024491C31086022481030006840F023
:1008400011002049103108601F48006820F4600042
:100850001D4908604FF0E020D0F8000140F08040D2
:100860001A4908601A484FF0E02148610020886169
:100870000846006940F0040008611648D0F8FC03FF
:1008800040F00F001349C1F8FC031348D0F8FC03F3
:1008900040F008001049C1F8FC0300BFFEE700006B
:1008A00000E10F4000E00F4040E60F404B434F4C4B
:1008B00020550240205400402C5500400000444484
:1008C00080800240005402401CE400E000E100E0AF
:1008D0001FBCBE000050004000500240FC08000059
:1008E0000000002004000000C00200000009000019
:1008F0000400002064040000DC020000000000008E
:040000050000026D88
:00000001FF
