:020000040000FA
:10000000700400206D020000710200007302000005
:100010007502000077020000790200000000000075
:100020000000000000000000000000007B02000053
:100030007D020000000000007F0200005504000067
:1000400083020000CD030000830200008302000051
:10005000830200008302000083020000830200008C
:10006000830200008302000083020000830200007C
:10007000830200008302000083020000830200006C
:10008000830200008302000083020000830200005C
:10009000830200008302000083020000830200004C
:1000A000830200008302000083020000830200003C
:1000B00083020000830200002D0400008302000080
:1000C000830200008302000083020000830200001C
:1000D000830200008302000083020000830200000C
:1000E00083020000830200008302000083020000FC
:1000F00083020000830200008302000083020000EC
:1001000083020000830200008302000083020000DB
:1001100083020000830200008302000083020000CB
:1001200083020000830200008302000083020000BB
:1001300083020000830200008302000083020000AB
:1001400000000000000000000000000000000000AF
:10015000830200008302000083020000830200008B
:10016000000000000000000000000000000000008F
:10017000000000000000000000000000000000007F
:10018000000000000000000000000000000000006F
:10019000000000000000000000000000000000005F
:1001A000000000000000000000000000000000004F
:1001B000830200008302000083020000830200002B
:1001C000830200008302000083020000830200001B
:1001D000830200008302000083020000830200000B
:1001E00083020000830200008302000083020000FB
:1001F00083020000830200008302000083020000EB
:10020000830200008302000083020000000000005F
:1002100083020000830200008302000083020000CA
:1002200083020000830200008302000083020000BA
:1002300083020000830200008302000083020000AA
:10024000830200008302000083020000830200009A
:10025000830200008302000083020000830200008A
:1002600083020000830200008302000000F00AB84D
:10027000FEE7FEE7FEE7FEE7FEE7FEE7FEE7FEE756
:10028000FEE7FEE700F002F800F03AF80AA090E876
:10029000000C82448344AAF10107DA4501D100F041
:1002A0002FF8AFF2090EBAE80F0013F0010F18BFD4
:1002B000FB1A43F0010318473C0500005C050000F1
:1002C000103A24BF78C878C1FAD8520724BF30C882
:1002D00030C144BF04680C60704700000023002454
:1002E00000250026103A28BF78C1FBD8520728BF46
:1002F00030C148BF0B6070471FB51FBD10B510BDA2
:1003000000F029F81146FFF7F7FF00F01FF900F0A1
:1003100047F803B4FFF7F2FF03BC00F04FF800000A
:1003200072B6704762B67047EFF3108072B67047CE
:1003300080F31088704730BF704702480249014A75
:10034000024B7047700000207004002070000020F5
:10035000704770477047754600F02CF8AE460500B0
:100360006946534620F00700854618B020B5FFF7D0
:10037000E4FFBDE820404FF000064FF000074FF0CB
:1003800000084FF0000B21F00701AC46ACE8C009B3
:10039000ACE8C009ACE8C009ACE8C0098D467047BC
:1003A00010B50446AFF300802046BDE81040FFF7CB
:1003B000B0BF0000004870470C0000200149182021
:1003C000ABBEFEE726000200704700000120124984
:1003D000086012480078F0B90121114A117000201C
:1003E00001E0411C88B24BF64E318842F9DB0D49E1
:1003F000496811B1012908D103E001210A4A1170AD
:1004000007E00021084A117003E00021064A11703C
:1004100000BF00BF00BF70471C5400400600002012
:10042000020000200050004001000020002001E0F8
:10043000411C88B24BF64E318842F9DB1021034A49
:1004400011600121024A1170704700001C540240E3
:100450000000002000B519480088401C174908809A
:1004600000204FF0E021886114480088322190FB81
:10047000F1F201FB120028B91148806B80F00200F4
:100480000F4988630D4800880E48007800010E4926
:10049000086000F01DF809480088B0F57A7F0CDB91
:1004A0004FF0E020006920F001004FF0E0210861EA
:1004B0000020024908800549087000BD04000020A2
:1004C0000050024008000020C053004006000020F9
:1004D0000F48007850B90F48007840100D49087057
:1004E0000846007890B9082008700FE008480078A6
:1004F00001280BD1074800784006000E0549087016
:1005000008460078102801D10120087070470000CB
:10051000070000200800002000B5012007490870EE
:100520000748806B00F011000549886302200549E7
:100530000870054800F036F900BD000006000020F4
:1005400000500240080000208038010000F0C4F88C
:1005500000F05EF8FFF7E6FE4CE02748007868B947
:100560002648007818B908202549886306E0234802
:100570000078012802D104202149886321480078AD
:10058000F8B100201F4908701F4908701A48007808
:10059000B8B91A48007840B91C48007888B10120E1
:1005A00016490870FFF7B8FF0BE0144800780128DF
:1005B00007D11648007820B9002010490870FFF7CD
:1005C000ABFF11480078A8B100200F4908700A4815
:1005D000007878B90948007818B9012007490870EF
:1005E00006E006480078012802D10020034908707F
:1005F000FFF792FFB1E7000006000020070000208F
:1006000000500240020000200000002001000020F5
:100610002B48006840F002002A49C1F8080100BFD9
:100620002748006800F002000228F9D12648006837
:1006300020F00100244908600846006840F0F000FE
:1006400008602248006840F0F100204908601F4817
:100650001438006840F0F0001C49143908601A484A
:100660001030006820F0010017491031086016486A
:10067000001D006820F001001349091D0860081DD5
:10068000006840F00100091D0860FF200E491C3180
:1006900008600D481030006840F001000A49103130
:1006A00008600B48006840F4005009490860094898
:1006B000006840F002004FF0E021C1F800017047EF
:1006C00008E10F4000E00F40005400401C5500407E
:1006D00000E400E000E100E02C48006840F0200069
:1006E0002B49C1F8080100BF2848006800F020002D
:1006F0002028F9D12748006860F0100025490860DB
:100700002548006840F010002349086022480C305A
:10071000006840F01E0020490C3108601D48103070
:10072000006820F010001B49103108601948001DB6
:10073000006820F010001749091D0860081D0068B6
:1007400020F01000091D0860081D006820F010004E
:10075000091D086010200F491C3108600D48103039
:10076000006840F010000B49103108600B48006829
:1007700040F48000094908600948006840F0804062
:100780004FF0E021C1F800017047000008E10F4080
:1007900000E00F4000540240105502401CE400E00D
:1007A00000E100E000214FF0E0229161114609696B
:1007B000002111611146096941F0040111611146DE
:1007C000096941F002011161411E5161084909683E
:1007D00021F06041064A11604FF0E021096941F0C3
:1007E00001014FF0E022116100219161704700008A
:1007F00008E400E014080000000000200C000000E5
:10080000C0020000200800000C000020640400006A
:10081000DC020000000000000000000006000000F4
:040000050000026D88
:00000001FF
