:020000040000FA
:10000000680400206D02000071020000730200000D
:100010007502000077020000790200000000000075
:100020000000000000000000000000007B02000053
:100030007D020000000000007F0200006107000058
:10004000830200008302000083020000830200009C
:10005000830200008302000083020000830200008C
:10006000830200008302000083020000830200007C
:10007000830200008302000083020000830200006C
:10008000830200008302000083020000830200005C
:10009000830200008302000083020000830200004C
:1000A000830200008302000083020000830200003C
:1000B000830200008302000083020000830200002C
:1000C000830200008302000083020000830200001C
:1000D000830200008302000083020000830200000C
:1000E00083020000830200008302000083020000FC
:1000F00083020000830200008302000083020000EC
:1001000083020000830200008302000083020000DB
:1001100083020000830200008302000083020000CB
:1001200083020000830200008302000083020000BB
:1001300083020000830200008302000083020000AB
:1001400000000000000000000000000000000000AF
:10015000830200008302000083020000830200008B
:10016000000000000000000000000000000000008F
:10017000000000000000000000000000000000007F
:10018000000000000000000000000000000000006F
:10019000000000000000000000000000000000005F
:1001A000000000000000000000000000000000004F
:1001B000830200008302000083020000830200002B
:1001C000830200008302000083020000830200001B
:1001D000830200008302000083020000830200000B
:1001E00083020000830200008302000083020000FB
:1001F00083020000830200008302000083020000EB
:10020000830200008302000083020000000000005F
:1002100083020000830200008302000083020000CA
:1002200083020000830200008302000083020000BA
:1002300083020000830200008302000083020000AA
:10024000830200008302000083020000830200009A
:10025000830200008302000083020000830200008A
:1002600083020000830200008302000000F00AB84D
:10027000FEE7FEE7FEE7FEE7FEE7FEE7FEE7FEE756
:10028000FEE7FEE700F002F800F03AF80AA090E876
:10029000000C82448344AAF10107DA4501D100F041
:1002A0002FF8AFF2090EBAE80F0013F0010F18BFD4
:1002B000FB1A43F001031847781100009811000061
:1002C000103A24BF78C878C1FAD8520724BF30C882
:1002D00030C144BF04680C60704700000023002454
:1002E00000250026103A28BF78C1FBD8520728BF46
:1002F00030C148BF0B6070471FB51FBD10B510BDA2
:1003000000F029F81146FFF7F7FF00F07DFA00F042
:1003100047F803B4FFF7F2FF03BC00F04FF800000A
:1003200072B6704762B67047EFF3108072B67047CE
:1003300080F31088704730BF704702480249014A75
:10034000024B70476800002068040020680000200D
:10035000704770477047754600F02CF8AE460500B0
:100360006946534620F00700854618B020B5FFF7D0
:10037000E4FFBDE820404FF000064FF000074FF0CB
:1003800000084FF0000B21F00701AC46ACE8C009B3
:10039000ACE8C009ACE8C009ACE8C0098D467047BC
:1003A00010B50446AFF300802046BDE81040FFF7CB
:1003B000B0BF000000487047080000200149182025
:1003C000ABBEFEE726000200704700000821094A84
:1003D000916200BF0749496801F008010029F9D07E
:1003E0000449A8310968C1F30B000821014AD16012
:1003F000704700000080034008B52E48006840F0B8
:1004000010002D49C1F808012A48006800902B48C7
:10041000006820F00400294908602848203000685E
:1004200040F004002549203108602548006820F08C
:1004300004002349086022480C30006840F00400A2
:100440001F490C3108601C48D0F8000140F480308E
:100450001949C1F800011748006800900846D0F813
:10046000000120F4407013490839086040F223105D
:10047000144908620846006820F008000860084631
:10048000406920F4704048610E48A030006820F0B8
:100490000F00401C0B49A03108600620091D0860B0
:1004A0000520084908630846006840F00800086015
:1004B00008BD000008E10F4000E00F40004402408A
:1004C0001C4502400080034010B5002404E00021D8
:1004D000012000F073F9641CB4F5FC7FF7DB002108
:1004E000084600F0E7F810BD08B54B48006840F03A
:1004F0000100494908604948006840F00100484946
:10050000C1F808014548006800904648006840F07E
:10051000C0004449086043482030006840F02C0087
:100520004049203108600846006820F0C00008609B
:100530003D48006840F0EC003B4908603A48103004
:1005400000683A4908403A49084437491031086080
:100550000846006820F07F400860081F006820F00F
:10056000EC00091F08603348406820F00200314960
:1005700048600846406820F0040048602E48006843
:1005800020F00F002C4908602A48006920F0FF0085
:10059000103028490861084600684FF6C07188434A
:1005A000244908600846006820F0300008600846CA
:1005B000006820F00F00C01D08600846406840F049
:1005C0000200486000204FF04021C1F80002009076
:1005D00002E00098401C009000980A28F9D380207F
:1005E000164908602121002000F0E8F86FF0400172
:1005F000002000F0E3F80421002000F0DFF81421CF
:10060000002000F0DBF82021002000F0D7F80C21BA
:10061000002000F0D3F808BD1CE60F4008E10F40B1
:1006200000E00F40004400401C450040FF000FFF69
:100630000022200000800040C88F0040004200409F
:1006400070B505460021012000F0B8F800240AE04A
:10065000A5F1200000EB8000064A1044015701205C
:1006600000F0ACF8641C052CF2DB0021012000F046
:10067000A5F870BD4E12000010B5044603E02078C6
:10068000FFF7DEFF641C20780028F8D110BD70B59C
:1006900004460A20B4FBF0F100FB1146B4FBF0F570
:1006A00015B12846FFF7F3FF06F13001C8B2FFF796
:1006B000C7FF70BD70B504460D460B2C01DC052D3F
:1006C00000DD70BDC4EBC40040F0800041B20020EA
:1006D00000F074F845F0400041B2002000F06EF8E0
:1006E00000BFEEE71D48006F40F000401B4908675F
:1006F0000846006F40F4006008670846006E20F46A
:10070000F86008660846006E00F5A86008660846AE
:10071000006F20F0700008670846006F0867084601
:10072000006F20F4005008670846006F40F08040DA
:1007300008670846006F20F0FE5000F180700867DF
:1007400000BF0648006D00F040000028F9D00348C3
:10075000006F20F4006001490867704700E00F4017
:100760002DE9F047FFF732FE0D4908800846008862
:1007700000F01FFB064632460B460A480A4900F0C5
:1007800093F90446094A0A4B00F07AFB804600F0D0
:10079000E3FA08490870012007490870BDE8F087AE
:1007A000000000209413ED2A13CDE640E8C804DBD6
:1007B0000C9E2040020000200400002098B900BFD9
:1007C0000F4AD26802F01002102AF9D000220D4B15
:1007D0001A600B4A916000BF094AD26802F0100209
:1007E000102AF9D00BE000BF054AD26802F00202DD
:1007F000002AF9D04022034B1A60014A91607047E9
:100800000080004000410040FFF76CFFFFF7F4FD5F
:10081000FFF76AFEFFF758FE4FF0E020006940F056
:1008200006004FF0E02108613948486100208861E6
:100830000846006940F001000861FFF773FD65E0BC
:1008400034480078002861D00020324908703248CE
:10085000008832490988884203DC0A203049087040
:1008600031E02D48008B2D490988884203DB462062
:100870002B49087027E0012021E0274931F81010AA
:10088000264A1288914218DC411E234A32F8111080
:1008900032F81020891A052291FBF2F11E4A32F833
:1008A00010201E4B1B889A1A92FBF1F200EB80017C
:1008B0000A31891A1A4A117003E0411CC8B20D2886
:1008C000DBDB00BF00BFFFF7FFFD00210846FFF79D
:1008D000F1FE14A0FFF7D0FE10480088FFF7D7FE06
:1008E00002210020FFF7E6FE12A0FFF7C5FE154823
:1008F0000078FFF7CCFE04210020FFF7DBFE12A0FA
:10090000FFF7BAFE06480078FFF7C1FE98E700003F
:10091000FF340C000400002034120000000000200E
:10092000030000204144432076616C75653A202025
:1009300000000000427920666F726D756C613A208C
:1009400000000000020000204279207461626C65A2
:100950003A2020200000000010B591EA030F48BFA4
:1009600083F0004300F19482841A71EB030C05D2EA
:10097000121943EB0C03001B61EB0C01DFF824E1BF
:100980004FEA1154A4EB135C1EEA430F18BF9EEA12
:10099000445F73D023EA0E03DCF1200E21EA0451F8
:1009A00043F4801332D322FA0CFE10EB0E0023FA2C
:1009B0000CFE41EB0E01CCF1200E03FA0EFE10EB03
:1009C0000E0051F10001B1F5801FCCF1200E32D2A2
:1009D00001EB045112FA0EF2BDE8104058BF704707
:1009E000401C38BF5FEA420218BF7047002814BF9E
:1009F00020F0010041F100014FEA410313F5001F0F
:100A000038BF7047A1F1C04100F034BA012A43EB6E
:100A10000302ACF1200CDCF11F0E32BF4FF0000ED0
:100A200023FA0CF310EB030041EB0451B4EB115F1C
:100A3000D0D0A1EB045101F5801149085FEA3000E4
:100A400001EB04510ED350F1000038BF12FA0EFE34
:100A500008D1BDE81040C9E7401C38BF5FEA420238
:100A6000CAD1C3E7BDE810404FEA410313F5001FA8
:100A700038BF7047A1F1C04100F0FCB99EEA445F65
:100A800008D011EA5E0FBDE8104004BF01F000413C
:100A900000207047BDE8104070B500F09DF900BF20
:100AA00064FBBE3E0000E0FF2DE9C04130B4DFF83A
:100AB000A0C23CEA111418BF3CEA131400F0EC8009
:100AC00081EA03051CEA111444EAD57418BF1CEA34
:100AD000131500F0C780A4EB05044FF0004545EA6C
:100AE000C12145EAC32341EA505143EA525304F17C
:100AF0007F74994204F500344FEAC0204FEAC222C5
:100B000008BF904200F09C804FEA13650FF2401638
:100B1000765D4FEA134506FB05F7C7F1807706FBC4
:100B200007F74FEAD737A7FB03687642C8F5803846
:100B3000A7FB06CE38BFA8F1010807FB08E64FF077
:100B4000000EA6FB028CE6FB03CEDCF1000CCEF11E
:100B5000004E38BFAEF1010EA6FB0C584FF0000757
:100B60004FF00005E6FB0E87A1FB08C6A0FB07CEF1
:100B700016EB0E0645F10005E1FB076515F1E04EA9
:100B80007EBFA4F580345FEA46066D4116F180070A
:100B900045F100054FEA17274FEA066647EA056761
:100BA000A6F1DE46B6F1805F4FEA15251FD938461B
:100BB00024F0010C05EBC471BCF1FE6F01EB0C11CC
:100BC00002D8F0BCBDE8008124425CBF01F5801E64
:100BD0009EEAC47F02D4F0BCBDE80081244238D430
:100BE000F0BCA1F1C041BDE8004100F043B94FEABB
:100BF000D22242EA43524FEAD323A7FB02864FEAAE
:100C0000D02040EA415007FB03661EEA0E0F4FEA70
:100C1000D12105FB026658BFA6EB0056B6EB005685
:100C20004FEA520E4EEAC37E18EB0E0E56EB530EF1
:100C3000BDD518EB02085E417F1C55F10005B6E7F3
:100C40004FF480154FF000074FF000064FF00008FA
:100C5000ADE7F0BC4FF0000001F1C04101F00041F0
:100C6000BDE8008111EA0C1F0CEA131500D00CE05E
:100C700013EA0C1F00F025804FF00000F0BC81EA61
:100C8000030101F00041BDE80081F0BCBDE8004176
:100C900081EA030100F0EEB8F0BCBDE8004170B598
:100CA00000F09AF8097EFC3E00F007B881EA0301E3
:100CB0004FF0000001F00041704781EA030100F0AD
:100CC000D9B8F0BCBDE800414FF0000021497047A1
:100CD000FFFDFBF9F7F5F4F2F0EEEDEBE9E8E6E401
:100CE000E3E1E0DEDDDBDAD8D7D5D4D3D1D0CFCD88
:100CF000CCCBCAC8C7C6C5C4C2C1C0BFBEBDBCBBC1
:100D0000BAB9B8B7B6B5B4B3B2B1B0AFAEADACABBB
:100D1000AAA9A8A8A7A6A5A4A3A3A2A1A09F9F9E95
:100D20009D9C9C9B9A999998979796959594939347
:100D3000929191908F8F8E8E8D8C8C8B8B8A8989DE
:100D40008888878786858584848383828281818061
:100D50000000FF070000F87F4FEA1153A3F58063FE
:100D6000D3F11E03A8BFD3F1200C08DB4FF00042E3
:100D700042EAC12252EA505232FA03F07047094265
:100D80000BD4102BC4BF0020704703F5787CBCF156
:100D9000FF3F05D04FF0FF3070474FF00000704725
:100DA00070B500F019F800BF499224800020704708
:100DB000F0E7B0FA80F310FA03F10AD0C3F11D0393
:100DC00003F580634FEA41504FEA035202EBD12111
:100DD00070474FF0000070470EF1020E2EF0030E28
:100DE0005EF8046B364205D4012A43EB030515F582
:100DF000001F12D8012841EB010C1CF5001F0CD874
:100E00000ED14FEAD17C15F5001F0CEB4C0C0CF108
:100E1000020C08BF4CEBD37C04E04FF0080C01E05F
:100E20004FEAD37C0CEB4C0526FA05F606F00706D4
:100E3000B6F1040C06D20EEB860CBDE870404CF007
:100E4000010C6047DFE80CF0090B02024FF0004193
:100E50004FF00000A1F5002170BD19461046012891
:100E600051EB010418BFD4F5001484BF002001F039
:100E7000004170BD0808A0F500114FEA310170472C
:100E800010B591EA030F48BF83F000433FF56CAD06
:100E9000841A71EB030C07D212198CF0004C43EB4F
:100EA0000C03001B61EB0C01DFF8A4E14FEA1154C5
:100EB000A4EB135C1EEA430F18BF9EEA445F00F0E8
:100EC000B08023EA6E03524221EA0451C3EB6E0361
:100ED00038BF5B1EDCF1200E25D322FA0CFE10EB8E
:100EE0000E0043FA0CFE41EB0E01CCF1200E03FA8A
:100EF0000EFE10EB0E0051F10001CCF1200E29D4B2
:100F000012FA0EF201EB0451BDE8104058BF7047D1
:100F1000401C1CBFB2F1004F704700280CBF491C99
:100F200020F00100704712EB020E43EB030218BFE2
:100F30004FF0010E4EEA4202ACF1200CDCF11E0E25
:100F400054D943FA0CFE10EB0E0051F1FF31CCF1F5
:100F50001E0ED5D50EF1010E12FA0EFE404141EBE8
:100F6000010101EB445C5FEA5C5C10D910EBDE70C0
:100F700001EB045138BFBEF1004FBDE8104018BF6F
:100F8000704700280CBF491C20F00100704730D288
:100F90004FEAD42C11F5001124F400641BD0B1FAEF
:100FA00081F20B3AA41AA41ED2F12003914030FA28
:100FB00003F31943904001EBCC71002C01EB045179
:100FC000BDE81040A8BF704701F1C0414FF00000DC
:100FD00001F000417047B0FA80F310FA03F100D13C
:100FE00010BDE41A173C4805C90AE4E701EB0451B7
:100FF00010BD491001EB0451BDE810404FEA30002C
:1010000002E04FF0000170474A0008BF0042F8D0EC
:10101000B2F5001F28BF704701F000414FF00000FB
:1010200070479EEA445F07D011EA5E0FBDE81040AA
:1010300004BF002100207047BDE8104070B5FFF7E5
:10104000CBFE00BF40DFF63E83F000411046704704
:101050000000E0FF000000000000005F000000074B
:10106000000700147F147F14242A7F2A12231308F8
:10107000646236495522500005030000001C2241DD
:10108000000041221C0014083E081408083E08080D
:1010900000503000000808080808006060000020C8
:1010A000100804023E5149453E00427F4000426123
:1010B0005149462141454B311814127F10274545AF
:1010C00045393C4A494930017109050336494949C6
:1010D00036064949291E0036360000005636000003
:1010E000081422410014141414140041221408029C
:1010F00001510906324979413E7E1111117E7F4925
:101100004949363E414141227F4141221C7F4949A4
:1011100049417F090909013E4149497A7F08080888
:101120007F00417F41002040413F017F0814224160
:101130007F404040407F020C027F7F0408107F3ECA
:101140004141413E7F090909063E4151215E7F0927
:10115000192946464949493101017F01013F404073
:10116000403F1F2040201F3F4038403F6314081479
:101170006307087008076151494543007F414100FA
:1011800002040810200041417F00040201020440D3
:1011900040404040000102040020545454787F48ED
:1011A0004444383844444420384444487F385454F4
:1011B0005418087E0901020C5252523E7F08040462
:1011C0007800447D40002040443D007F10284400CA
:1011D00000417F40007C041804787C0804047838BF
:1011E000444444387C14141408081414187C7C08F3
:1011F0000404084854545420043F4440203C4040D8
:10120000207C1C2040201C3C4030403C44281028BE
:10121000440C5050503C4464544C44000836410047
:1012200000007F0000004136080010080810081F69
:10123000247C241F120C51085E063C059904080406
:101240008B0343031A03E402CC029E026C020000EB
:1012500000000000005F00000007000700147F147A
:101260007F14242A7F2A12231308646236495522E8
:10127000500005030000001C2241000041221C0018
:1012800014083E081408083E080800503000000802
:1012900008080808006060000020100804023E51A1
:1012A00049453E00427F4000426151494621414547
:1012B0004B311814127F1027454545393C4A49499E
:1012C0003001710905033649494936064949291E45
:1012D0000036360000005636000008142241001483
:1012E0001414141400412214080201510906324951
:1012F00079413E7E1111117E7F494949363E414177
:1013000041227F4141221C7F494949417F09090906
:10131000013E4149497A7F0808087F00417F41002A
:101320002040413F017F081422417F404040407FE0
:10133000020C027F7F0408107F3E4141413E7F093D
:101340000909063E4151215E7F091929464649494E
:10135000493101017F01013F4040403F1F204020B3
:101360001F3F4038403F63140814630708700807A4
:101370006151494543007F414100020408102000AB
:1013800041417F000402010204404040404000010E
:1013900002040020545454787F484444383844446C
:1013A0004420384444487F3854545418087E090176
:1013B000020C5252523E7F0804047800447D4000E3
:1013C0002040443D007F1028440000417F40007CC5
:1013D000041804787C0804047838444444387C14A5
:1013E000141408081414187C7C0804040848545485
:1013F0005420043F4440203C4040207C1C2040209E
:101400001C3C4030403C44281028440C5050503C78
:101410004464544C44000836410000007F00000042
:101420004136080010080810081F247C241F000003
:10143000501400000000002008000000C00200005E
:10144000581400000800002060040000DC020000C6
:08145000000000000000000094
:040000050000026D88
:00000001FF
