:03000000020B39B7
:0C0B3900787FE4F6D8FD758113020B25CF
:100AC6005365636F6E6473206C65667420666F721F
:100AD600204557203A200A0A00360A00350A003413
:100AE6000A00330A00320A00310A0053544F500AF2
:020AF6000A00F4
:100B2500120B4575A885E4F59075A00C1209A6125F
:040B35000A1780F823
:100A1700E509601614600B147016D2A0C2A1C2A219
:100A2700800EC2A0D2A1C2A28006C2A0C2A1D2A239
:100A3700E508601414600A147014D2A3C2A4C2A5F6
:0F0A470022C2A3D2A4C2A522C2A3C2A4D2A522B6
:100A5600C28CAF8CF50A8F0BAF8AF50C8F0D7F0118
:100A6600E4FEEEC39F5024E4FDEDC3941474809419
:100A7600805013758921758C3C758AB0D28C308D67
:0B0A8600FDC28D0D80E3C28C0E80D7F6
:010A91002242
:1009A600AF09EF7010AF08EF640270097F06120AF4
:1009B6006675090122AF09EF64017013AF08EF6491
:1009C60002700C7F02120A66750902E4F50822AF6E
:1009D60009EF6402700EAF08EF70097F06120A660F
:1009E60075080122AF09EF64027013AF08EF6401C6
:1009F600700C7F02120A66E4F50975080222E4F516
:100A060009750802C2A0C2A1D2A2D2A3C2A4C2A5DD
:010A160022BD
:03000300020800F0
:10080000C0E0C0F0C083C082C0D075D000C000C0BE
:1008100001C002C003C004C005C006C007AF09EF95
:1008200060030208B8120A56750901120A170F125E
:100830000A66750902750800120A17D2977BFF7ABB
:100840000A79C6120A9D7BFF7A0A79DF120A9D1285
:100850000A927F01120A667BFF7A0A79E5120A9DE5
:100860007F01120A667BFF7A0A79E8120A9D7F01EE
:10087000120A667BFF7A0A79EB120A9D7F01120A3F
:10088000667BFF7A0A79EE120A9D7F01120A66C220
:1008900097750801120A17120A66D297120A66C2E1
:1008A000977BFF7A0A79F1120A9D1209A6120A179C
:1008B000850B8C850D8AD28CD007D006D005D0044C
:1008C000D003D002D001D000D0D0D082D083D0F0DD
:0308D000D0E03243
:030013000208D30D
:1008D300C0E0C0F0C083C082C0D075D000C000C0EB
:1008E30001C002C003C004C005C006C007AF08EFC3
:1008F300600302098B120A56750801120A170F12B8
:100903000A66750802750900120A17D2967BFF7AE8
:100913000A79C6120A9D7BFF7A0A79DF120A9D12B1
:100923000A927F01120A667BFF7A0A79E5120A9D11
:100933007F01120A667BFF7A0A79E8120A9D7F011A
:10094300120A667BFF7A0A79EB120A9D7F01120A6B
:10095300667BFF7A0A79EE120A9D7F01120A66C24C
:1009630096750901120A17120A66D296120A66C20E
:10097300967BFF7A0A79F1120A9D1209A6120A17C9
:10098300850B8C850D8AD28CD007D006D005D00478
:10099300D003D002D001D000D0D0D082D083D0F009
:0309A300D0E0326F
:0C0B4500758921758DFD759850D28E22A7
:080B51008F993099FDC2992231
:0B0A92007F01120A667BFF7A0A79E2FE
:060A9D008B118A1289137F
:100AA300E4FDFCAB11AA12A9138D828C83120AF800
:100AB300FFFB3395E04B600A120B510DBD00010C97
:020AC30080E1D0
:010AC500220E
:100AF800BB010CE58229F582E5833AF583E02250B3
:100B080006E92582F8E622BBFE06E92582F8E222FC
:0D0B1800E58229F582E5833AF583E4932216
:00000001FF
