:020000040000FA
:10000000680400206D02000071020000730200000D
:100010007502000077020000790200000000000075
:100020000000000000000000000000007B02000053
:100030007D020000000000007F020000810200003D
:10004000830200008302000083020000830200009C
:10005000830200008302000083020000830200008C
:10006000830200008302000083020000830200007C
:10007000830200008302000083020000830200006C
:10008000830200008302000083020000830200005C
:10009000830200008302000083020000830200004C
:1000A000830200008302000083020000830200003C
:1000B000830200008302000083020000830200002C
:1000C000830200008302000083020000830200001C
:1000D000830200008302000083020000830200000C
:1000E00083020000830200008302000083020000FC
:1000F00083020000830200008302000083020000EC
:1001000083020000830200008302000083020000DB
:1001100083020000830200008302000083020000CB
:1001200083020000830200008302000083020000BB
:1001300083020000830200008302000083020000AB
:1001400000000000000000000000000000000000AF
:10015000830200008302000083020000830200008B
:10016000000000000000000000000000000000008F
:10017000000000000000000000000000000000007F
:10018000000000000000000000000000000000006F
:10019000000000000000000000000000000000005F
:1001A000000000000000000000000000000000004F
:1001B000830200008302000083020000830200002B
:1001C000830200008302000083020000830200001B
:1001D000830200008302000083020000830200000B
:1001E00083020000830200008302000083020000FB
:1001F00083020000830200008302000083020000EB
:10020000830200008302000083020000000000005F
:1002100083020000830200008302000083020000CA
:1002200083020000830200008302000083020000BA
:1002300083020000830200008302000083020000AA
:10024000830200008302000083020000830200009A
:10025000830200008302000083020000830200008A
:1002600083020000830200008302000000F00AB84D
:10027000FEE7FEE7FEE7FEE7FEE7FEE7FEE7FEE756
:10028000FEE7FEE700F002F800F03AF80AA090E876
:10029000000C82448344AAF10107DA4501D100F041
:1002A0002FF8AFF2090EBAE80F0013F0010F18BFD4
:1002B000FB1A43F001031847DC050000FC050000B1
:1002C000103A24BF78C878C1FAD8520724BF30C882
:1002D00030C144BF04680C60704700000023002454
:1002E00000250026103A28BF78C1FBD8520728BF46
:1002F00030C148BF0B6070471FB51FBD10B510BDA2
:1003000000F029F81146FFF7F7FF00F0A5F800F01C
:1003100047F803B4FFF7F2FF03BC00F04FF800000A
:1003200072B6704762B67047EFF3108072B67047CE
:1003300080F31088704730BF704702480249014A75
:10034000024B70476800002068040020680000200D
:10035000704770477047754600F02CF8AE460500B0
:100360006946534620F00700854618B020B5FFF7D0
:10037000E4FFBDE820404FF000064FF000074FF0CB
:1003800000084FF0000B21F00701AC46ACE8C009B3
:10039000ACE8C009ACE8C009ACE8C0098D467047BC
:1003A00010B50446AFF300802046BDE81040FFF7CB
:1003B000B0BF000000487047040000200149182029
:1003C000ABBEFEE72600020070470246002002E0B6
:1003D00000231354401C8842FADB704730B50246B4
:1003E0000D46002400BF05E01948007810B1002038
:1003F000107030BD1748806900F010000028F3D15C
:100400001448006843B2082B05D1521E002C10DDA1
:10041000601E84B20DE0E81EA04204DD601C84B2C0
:100420001370521C05E00D20107000F0D9F9521C19
:1004300004E0184600F0D4F90D2BD4D100BF0A20F7
:1004400000F0CEF90A2010700020507000BFD0E7F5
:100450000000002000C00040C0B07E48006840F0AE
:1004600023007D49C1F808017C48006840F0030082
:100470007A4908607A48006840F0030078490860CB
:100480007848006820F0FF00764908600846006858
:1004900040F01100086073481038006840F0030015
:1004A0007049103908607048006840F003006E49D8
:1004B00008606E48006820F0FF006C49086008463C
:1004C000006840F01100086068481038006840F08B
:1004D00003006649103908606548006B20F0010090
:1004E00063490863682048620B2088620846C06A36
:1004F00040F06000C8625F48006820F00F005D496E
:1005000008605B48006B40F0010059490863594896
:100510003830006B20F001005649383108631A204A
:100520004862032088620846C06A40F06000C862E2
:100530005148006820F00F004F4908604D4838309E
:10054000006B40F001004B49383108634BA000F0CC
:100550005BF953A000F058F95AA000F055F960A0DB
:1005600000F052F967A000F04FF974A000F04CF9C8
:100570007EA000F049F96CE0FF216846FFF725FFF7
:1005800000247CA000F040F9FF216846FFF726FF19
:10059000684600F063F918B97AA000F035F958E020
:1005A000684600F041F9002443E000BF314838308C
:1005B000806900F010000028F8D12E48383000681B
:1005C00040B20DF804001DF80400292800D132E0E3
:1005D000601E1DF800004F2804D11DF804004B28B0
:1005E00000D128E0E01E1DF8000046280ED1A01E14
:1005F0001DF80000412809D1601E1DF8000049289F
:1006000004D11DF804004C2800D114E01DF80400AA
:1006100070B967A000F0F8F8002504E01DF90500A6
:1006200000F0DEF86D1CA542F8DD00F0E5F802E010
:10063000641CFD2CB9DB00BF0021601C0DF800100C
:1006400064A000F0E1F8684600F0DEF800F0D4F8AD
:1006500000BF91E708E10F4000E00F4018E60F40AF
:10066000204400402C450040205400402C550040C0
:1006700000C00040C8CF0040C8DF004057656C6331
:100680006F6D6520746F2074686520736572696191
:100690006C207465726D696E616C2E0D0A0000002D
:1006A0005468697320697320746865207365747574
:1006B000702070726F6772616D20666F722074684F
:1006C0006520000048432D303520426C7565746FFD
:1006D0006F7468204D6F64756C652E0D0A00000004
:1006E000596F752061726520696E207468652022DB
:1006F00041542220636F6D6D616E64206D6F64657F
:100700002E0D0A005468652067656E6572616C2065
:10071000666F726D617420666F7220636F6D6D61BC
:100720006E6473206973202241542B3C636F6D6D9E
:10073000616E643E222E0D0A000000005472792082
:10074000747970696E6720224154223B20796F755D
:100750002073686F756C6420676574207468652009
:10076000726573706F6E736520000000224F4B221C
:100770002E0D0A00496E7075742071756572793A94
:1007800020000000537472696E6720666F726D619D
:100790007420696E636F72726563742E204469649D
:1007A000206E6F742073656E642E0D0A00000000C9
:1007B0005265636569766520756E737563636573ED
:1007C0007366756C2E2052656365697665643A20A0
:1007D00000000000526573706F6E73653A20000070
:1007E0000449086000BF0349896901F0200100291C
:1007F000F9D1704700C0004000B50D20FFF7F0FFB1
:100800000A20FFF7EDFF00BD10B50346002407E006
:100810001A571046FFF7E4FF02B902E0601C84B2E9
:10082000F6E700BF10BD000012E000BF0A49896969
:1008300001F020010029F9D190F90010064A116059
:1008400000BF0549896901F020010029F9D1401C48
:1008500001780029E9D1704700D00040014600220C
:10086000084602E0531CDAB2401C0378002BF9D191
:10087000087841280AD14878542807D1901E085C8E
:100880000D2803D1501E085C0A2801D000207047B3
:100890000120FCE7B4080000000000200400000074
:1008A000C0020000B808000004000020640400003A
:0808B000DC0200000000000062
:040000050000026D88
:00000001FF
