:03000000020800F3
:0C080000787FE4F6D8FD75810A020847F5
:040980000208200049
:1008C700E4F5907580FF308707059012096A80F676
:1008D700308611208006208103308203D38001C334
:1008E700929180EC30850512088C80F8E4FEFF2297
:10088C00E4F50AC3E50A94027480948050071209B7
:10089C0047050A80EEE4F50AC3E50A9402748094D5
:1008AC0080500E7F0112091F7F011208F7050A8084
:0B08BC00E77F0212091F7F020208F70D
:04096A00AF09AE081B
:10096E00E4FDFCC3ED9FEC9E50070DBD00010C8015
:01097E00F286
:01097F002255
:0208F700A9074F
:1008F900E4FBEBC399501E759001E4FAEAC394082E
:1009090074809480500C12096AE59025E0F5900AEC
:0509190080EA0B80DD07
:01091E0022B6
:02091F00A90726
:10092100E4FBEBC399501E759080E4FAEAC3940886
:1009310074809480500C12096AE590C313F5900AF3
:0509410080EA0B80DDDF
:01094600228E
:1009470079017B80E4FAEAC394087480948050129A
:10095700E94BF59012096AE925E0F9EBC313FB0AA5
:0209670080E42A
:01096900226B
:10080C000208C7E493A3F8E493A34003F68001F233
:10081C0008DFF48029E493A3F85407240CC8C333ED
:10082C00C4540F4420C8834004F456800146F6DFBC
:10083C00E4800B0102040810204080900980E47EC3
:10084C00019360BCA3FF543F30E509541FFEE493B1
:10085C00A360010ECF54C025E060A840B8E493A378
:10086C00FAE493A3F8E493A3C8C582C8CAC583CAA3
:10087C00F0A3C8C582C8CAC583CADFE9DEE780BE5B
:010984000072
:00000001FF
