:020000040000FA
:10000000600400206D020000710200007302000015
:100010007502000077020000790200000000000075
:100020000000000000000000000000007B02000053
:100030007D020000000000007F020000810200003D
:10004000830200008302000083020000830200009C
:10005000830200008302000083020000830200008C
:10006000830200008302000083020000830200007C
:10007000830200008302000083020000830200006C
:10008000830200008302000083020000830200005C
:10009000830200008302000083020000830200004C
:1000A000830200008302000083020000830200003C
:1000B000830200008302000083020000830200002C
:1000C000830200008302000083020000830200001C
:1000D000830200008302000083020000830200000C
:1000E00083020000830200008302000083020000FC
:1000F00083020000830200008302000083020000EC
:1001000083020000830200008302000083020000DB
:1001100083020000830200008302000083020000CB
:1001200083020000830200008302000083020000BB
:1001300083020000830200008302000083020000AB
:1001400000000000000000000000000000000000AF
:10015000830200008302000083020000830200008B
:10016000000000000000000000000000000000008F
:10017000000000000000000000000000000000007F
:10018000000000000000000000000000000000006F
:10019000000000000000000000000000000000005F
:1001A000000000000000000000000000000000004F
:1001B000830200008302000083020000830200002B
:1001C000830200008302000083020000830200001B
:1001D000830200008302000083020000830200000B
:1001E00083020000830200008302000083020000FB
:1001F00083020000830200008302000083020000EB
:10020000830200008302000083020000000000005F
:1002100083020000830200008302000083020000CA
:1002200083020000830200008302000083020000BA
:1002300083020000830200008302000083020000AA
:10024000830200008302000083020000830200009A
:10025000830200008302000083020000830200008A
:1002600083020000830200008302000000F00AB84D
:10027000FEE7FEE7FEE7FEE7FEE7FEE7FEE7FEE756
:10028000FEE7FEE700F002F800F02CF80AA090E884
:10029000000C82448344AAF10107DA4501D100F041
:1002A00021F8AFF2090EBAE80F0013F0010F18BFE2
:1002B000FB1A43F001031847BC020000CC02000007
:1002C0000023002400250026103A28BF78C1FBD85F
:1002D000520728BF30C148BF0B6070471FB51FBD14
:1002E00010B510BD00F05BF81146FFF7F7FF00F006
:1002F000F3F800F079F803B4FFF7F2FF03BC00F065
:1003000081F8000072B6704762B67047EFF3108054
:1003100072B6704780F31088704730BF704702484C
:100320000249014A024B704760000020600400202F
:100330006000002010B5203AC0F00B80B1E81850E2
:10034000203AA0E81850B1E81850A0E81850BFF4BF
:10035000F5AF5FEA027C24BFB1E81850A0E818505E
:1003600044BF18C918C0BDE810405FEA827C24BFB2
:1003700051F8043B40F8043B08BF7047D20728BF40
:1003800031F8023B48BF11F8012B28BF20F8023B8F
:1003900048BF00F8012B704770477047704775469B
:1003A00000F02CF8AE4605006946534620F00700E1
:1003B000854618B020B5FFF7B2FFBDE820404FF0EA
:1003C00000064FF000074FF000084FF0000B21F03F
:1003D0000701AC46ACE8C009ACE8C009ACE8C0090C
:1003E000ACE8C0098D46704710B50446AFF30080F5
:1003F0002046BDE81040FFF77EBF00000048704770
:100400000000002001491820ABBEFEE726000200D4
:10041000704700000C48006840F002000B49C1F82A
:10042000080100BF0848006800F002000228F9D166
:100430000020074908600649203908600320044964
:10044000FC3108607047000008E10F4000E00F40F9
:10045000205400400C48006840F010000B49C1F8DF
:10046000080100BF0848006800F010001028F9D10A
:10047000002007490860FF200549203908603F2017
:100480000349FC310860704708E10F4000E00F406D
:10049000204402400F224FF0E0235A6100229A616B
:1004A0001A46126942F001021A61002108E000BFF9
:1004B0004FF0E022126902F48032002AF8D0491C81
:1004C0008142F4D34FF0E022126922F001024FF092
:1004D000E0231A61704700008CB0FFF7BBFFFFF705
:1004E00099FF00F027F830220F496846FFF722FFF6
:1004F000002418E004EB44005DF820000B4908607C
:1005000004EB44016A4602EB81014868FFF7C2FF31
:100510000748D0F8FC03C5B204EB4400694601EB80
:1005200080000830445DE5E744050000FC430240DC
:100530000050004000204FF0E02108618861042055
:10054000086170470C00000080841E00000001015B
:100550001400000040420F000202020221000000CD
:1005600080841E00020302032200000040420F00AC
:10057000000000008405000000000020600400006E
:04058000C0020000B5
:040000050000026D88
:00000001FF
