:020000040000FA
:10000000680400206D02000071020000730200000D
:100010007502000077020000790200000000000075
:100020000000000000000000000000007B02000053
:100030007D020000000000007F020000C5040000F7
:10004000830200008302000083020000830200009C
:10005000830200008302000083020000830200008C
:10006000830200008302000083020000830200007C
:10007000830200008302000083020000830200006C
:10008000830200008302000083020000830200005C
:10009000830200008302000083020000830200004C
:1000A000830200008302000083020000830200003C
:1000B000830200008302000031040000830200007C
:1000C000830200008302000083020000830200001C
:1000D000830200008302000083020000830200000C
:1000E00083020000830200008302000083020000FC
:1000F00083020000830200008302000083020000EC
:1001000083020000830200008302000083020000DB
:1001100083020000830200008302000083020000CB
:1001200083020000830200008302000083020000BB
:1001300083020000830200008302000083020000AB
:1001400000000000000000000000000000000000AF
:10015000830200008302000083020000830200008B
:10016000000000000000000000000000000000008F
:10017000000000000000000000000000000000007F
:10018000000000000000000000000000000000006F
:10019000000000000000000000000000000000005F
:1001A000000000000000000000000000000000004F
:1001B000830200008302000083020000830200002B
:1001C000830200008302000083020000830200001B
:1001D000830200008302000083020000830200000B
:1001E00083020000830200008302000083020000FB
:1001F00083020000830200008302000083020000EB
:10020000830200008302000083020000000000005F
:1002100083020000830200008302000083020000CA
:1002200083020000830200008302000083020000BA
:1002300083020000830200008302000083020000AA
:10024000830200008302000083020000830200009A
:10025000830200008302000083020000830200008A
:1002600083020000830200008302000000F00AB84D
:10027000FEE7FEE7FEE7FEE7FEE7FEE7FEE7FEE756
:10028000FEE7FEE700F002F800F03AF80AA090E876
:10029000000C82448344AAF10107DA4501D100F041
:1002A0002FF8AFF2090EBAE80F0013F0010F18BFD4
:1002B000FB1A43F001031847B8080000D8080000F3
:1002C000103A24BF78C878C1FAD8520724BF30C882
:1002D00030C144BF04680C60704700000023002454
:1002E00000250026103A28BF78C1FBD8520728BF46
:1002F00030C148BF0B6070471FB51FBD10B510BDA2
:1003000000F05BF81146FFF7F7FF00F011F900F07D
:1003100079F803B4FFF7F2FF03BC00F081F80000A6
:1003200072B6704762B67047EFF3108072B67047CE
:1003300080F31088704730BF704702480249014A75
:10034000024B70476800002068040020680000200D
:1003500010B5203AC0F00B80B1E81850203AA0E860
:100360001850B1E81850A0E81850BFF4F5AF5FEA94
:10037000027C24BFB1E81850A0E8185044BF18C947
:1003800018C0BDE810405FEA827C24BF51F8043BEE
:1003900040F8043B08BF7047D20728BF31F8023B42
:1003A00048BF11F8012B28BF20F8023B48BF00F8D6
:1003B000012B7047704770477047754600F02CF866
:1003C000AE4605006946534620F00700854618B042
:1003D00020B5FFF7B2FFBDE820404FF000064FF018
:1003E00000074FF000084FF0000B21F00701AC466A
:1003F000ACE8C009ACE8C009ACE8C009ACE8C00989
:100400008D46704710B50446AFF300802046BDE826
:100410001040FFF77EBF0000004870470400002036
:1004200001491820ABBEFEE726000200704700001D
:10043000002001E0411C88B24FF6FE718842F9DBD2
:100440001C48006800F0110001280DD010282AD1A6
:100450001849091D08601848007808B9012000E013
:1004600000201549087023E001201249091D086089
:100470001148007858B111480078022801DB0020AB
:1004800002E00E480078401C0C4908700AE00C4855
:100490000078022801DB002002E009480078401CB7
:1004A0000749087004E011200249091D086000BFD7
:1004B00000BF7047185402400100002003000020D4
:1004C000020000204FF0E020006920F001004FF012
:1004D000E02108610D4800783F2801DB002002E0A0
:1004E0000A480078401C0949087009480978405CAE
:1004F00080000849086000204FF0E021886108462C
:10050000006940F001000861704700000000002011
:10051000240A0000FC43004008B549F6164000904C
:1005200002E00098401E009000980028F9D108BD14
:10053000C4B0C848006840F02900C749C1F80801A4
:1005400000BFC648006800F029002928F9D1C44836
:10055000006840F0FC00C2490860C14820300068D3
:1005600020F0FC00BE4920310860BE48006840F021
:10057000FC00BC490860BB481430006840F0FC0037
:10058000B84914310860B848B8490978405C80001F
:10059000B349091F0860B648006820F00F00B4494D
:1005A0000860B3482030006820F00F00B0492031C7
:1005B0000860B048006840F00F00AE49086000BF16
:1005C000AD48AE4908600846006800F00100002808
:1005D000F6D1081D006840F01300091D086000BF37
:1005E0000020A64908600846006800F001000028C5
:1005F000F6D0A348006820F01100A1490860084621
:10060000006840F0060008609D482030006820F037
:1006100017009B492031086098481038006840F066
:1006200011009649103908609448001F006840F096
:1006300017009249091F08609148001F006820F0C8
:1006400006009049C1F8FC038D481030006820F086
:1006500011008B49103108608948001D006820F0A6
:1006600011008749091D08600846006820F0110044
:10067000086083480C30006820F0110080490C317C
:10068000086011207E491C3108607D4810300068E8
:1006900040F011007A49103108607B48006820F46E
:1006A0006000794908600846006840F4001008605E
:1006B0004FF0E020D0F8000140F08040734908601E
:1006C00006204FF0E0210861002088616E48103854
:1006D000006820F060406C49103908604FF0E0205D
:1006E000D0F8000140F400404FF0E021C1F80001D3
:1006F000FFF718FE8422664923A8FFF729FE482247
:100700006349843111A8FFF723FE40226049CC31B0
:1007100001A8FFF71DFE9BE05E48007880B35848B3
:10072000001F006840F002005649C1F8FC0308466B
:10073000D0F8FC0320F00400C1F8FC035648007810
:1007400020B1012809D0022815D10DE052480278C5
:10075000202101A800F0A6F811E04F4802782321DB
:1007600011A800F09FF80AE04B480278412123A825
:1007700000F098F803E000204749087000BF66E0E9
:10078000FFE73F48001F006820F002003D49C1F824
:10079000FC030846D0F8FC0340F00400C1F8FC0359
:1007A0003348001F006800F00F0454B94FF0E020F8
:1007B000006920F001004FF0E0210861002088610D
:1007C00046E004F0010058B134480078C0EBC000A6
:1007D000334951F8200080094FF0E02148612EE0B4
:1007E00004F0020060B12D480078C0EBC0002C4935
:1007F00001EB8000406880094FF0E02148611EE075
:1008000004F0040060B125480078C0EBC000244922
:1008100001EB8000806880094FF0E02148610EE024
:1008200004F0080058B11D480078C0EBC0001C4916
:1008300001EB8000C06880094FF0E02148614FF073
:10084000E020006940F001004FF0E021086100BFA6
:1008500062E7000008E10F4000E00F4008E60F40AB
:100860000044004008450040240A00000000002029
:10087000007400401C7500404B434F4C2055024013
:1008800000540240005002401CE400E000E100E09F
:10089000640A000001000020030000200200002084
:1008A000B4090000F0B504460D46164600216DE07F
:1008B00004EB41004078FF2808D14FF0E0200069A8
:1008C00020F001004FF0E023186131E000204FF0EC
:1008D000E023986114F81100FE2802D1FFF71CFEF6
:1008E00052E014F8110007280EDB2E480078401C57
:1008F000C0EBC0002C4B03EB800314F81100C01FA9
:1009000053F8200080090BE026480078C0EBC000B7
:10091000254B03EB800014F8113050F823008009B8
:100920004FF0E02358611846006940F0010018615B
:1009300000271EE0002215E01C480078B04202D1DA
:100940001B48007850B94FF0E020006920F001000A
:100950004FF0E023186100209861F0BDFFF7DCFD47
:10096000501CC2B204EB410040789042E4DC781C99
:10097000C7B2042FDEDB4FF0E020006920F0010059
:100980004FF0E023186100BF481CC1B2A9428FDBC1
:10099000002203E0FFF7C0FD501CC2B2282AF9DB99
:1009A00000BFDAE702000020B409000003000020C5
:1009B0000100002019DD01002CA90100CA7A010004
:1009C00025650100E13E0100171C010009FD000042
:1009D0008CEE000096D4000065BD000092B20000CD
:1009E000709F00000B8E0000847E000046770000A0
:1009F0004B6A0000B25E000049590000B84F000089
:100A000005470000423F0000A33B000025350000E1
:100A1000592F0000A42C0000DC27000082230000D6
:100A2000A11F00001F2225282B2E30333537393BDC
:100A30003C3D3E3E3E3E3D3C3B3A383634322F2C28
:100A40002A2724211D1A1714120F0C0A0806040362
:100A50000201000000000102030507090B0E10133C
:100A600016191C000004FE0000040404FE00040427
:100A70000504FE0005040404FF040304FE0003044F
:100A80000204FE0002040104FE0001040004FF044D
:100A90000404FE0004040304FE0003040204FE0038
:100AA00002040104FF040404FE0004040304FE0025
:100AB00003040204FE0002040104FF040004FE001B
:100AC00000040404FE0004040504FE0005040404FC
:100AD000FF040304FE0003040204FE0002040104F8
:100AE000FE000104000400000204010400040104EB
:100AF0000204FE000204FE0002080104FE000104DC
:100B0000FE00010802040404FE00040802040104BB
:100B1000000401040204FE000204FE000204FE00C0
:100B200002040104FE0001040204010400080000A4
:100B30000402FE0004020504040407040604FF0482
:100B40000402FE0004020504040408040704FF0470
:100B50000402FE0004020B0409040704060405084D
:100B6000FF040A02FE000A02090407040804070839
:100B7000900B00000000002004000000C0020000F4
:100B8000940B00000400002064040000DC0200005C
:040B90000000000061
:040000050000026D88
:00000001FF
