:020000040000FA
:10000000680400206D02000071020000730200000D
:100010007502000077020000790200000000000075
:100020000000000000000000000000007B02000053
:100030007D020000000000007F020000810200003D
:1000400083020000310400008302000083020000EC
:10005000830200008302000083020000830200008C
:10006000830200008302000083020000830200007C
:10007000830200008302000083020000830200006C
:10008000830200008302000083020000830200005C
:10009000830200008302000083020000830200004C
:1000A000830200008302000083020000830200003C
:1000B000830200008302000083020000830200002C
:1000C000830200008302000083020000830200001C
:1000D000830200008302000083020000830200000C
:1000E00083020000830200008302000083020000FC
:1000F00083020000830200008302000083020000EC
:1001000083020000830200008302000083020000DB
:1001100083020000830200008302000083020000CB
:1001200083020000830200008302000083020000BB
:1001300083020000830200008302000083020000AB
:1001400000000000000000000000000000000000AF
:10015000830200008302000083020000830200008B
:10016000000000000000000000000000000000008F
:10017000000000000000000000000000000000007F
:10018000000000000000000000000000000000006F
:10019000000000000000000000000000000000005F
:1001A000000000000000000000000000000000004F
:1001B000830200008302000083020000830200002B
:1001C000830200008302000083020000830200001B
:1001D000830200008302000083020000830200000B
:1001E00083020000830200008302000083020000FB
:1001F00083020000830200008302000083020000EB
:10020000830200008302000083020000000000005F
:1002100083020000830200008302000083020000CA
:1002200083020000830200008302000083020000BA
:1002300083020000830200008302000083020000AA
:10024000830200008302000083020000830200009A
:10025000830200008302000083020000830200008A
:1002600083020000830200008302000000F00AB84D
:10027000FEE7FEE7FEE7FEE7FEE7FEE7FEE7FEE756
:10028000FEE7FEE700F002F800F03AF80AA090E876
:10029000000C82448344AAF10107DA4501D100F041
:1002A0002FF8AFF2090EBAE80F0013F0010F18BFD4
:1002B000FB1A43F001031847E8040000080500009A
:1002C000103A24BF78C878C1FAD8520724BF30C882
:1002D00030C144BF04680C60704700000023002454
:1002E00000250026103A28BF78C1FBD8520728BF46
:1002F00030C148BF0B6070471FB51FBD10B510BDA2
:1003000000F05BF81146FFF7F7FF00F067F900F027
:1003100079F803B4FFF7F2FF03BC00F081F80000A6
:1003200072B6704762B67047EFF3108072B67047CE
:1003300080F31088704730BF704702480249014A75
:10034000024B70476800002068040020680000200D
:1003500010B5203AC0F00B80B1E81850203AA0E860
:100360001850B1E81850A0E81850BFF4F5AF5FEA94
:10037000027C24BFB1E81850A0E8185044BF18C947
:1003800018C0BDE810405FEA827C24BF51F8043BEE
:1003900040F8043B08BF7047D20728BF31F8023B42
:1003A00048BF11F8012B28BF20F8023B48BF00F8D6
:1003B000012B7047704770477047754600F02CF866
:1003C000AE4605006946534620F00700854618B042
:1003D00020B5FFF7B2FFBDE820404FF000064FF018
:1003E00000074FF000084FF0000B21F00701AC466A
:1003F000ACE8C009ACE8C009ACE8C009ACE8C00989
:100400008D46704710B50446AFF300802046BDE826
:100410001040FFF77EBF0000004870470400002036
:1004200001491820ABBEFEE726000200704700001D
:100430000420034908600120024908707047000049
:100440001C5400400000002010B52E48006840F009
:1004500002002D49C1F8080100BF2A48006800F0D9
:1004600002000228F9D12948006820F00700274936
:10047000086026482038006820F00700234920390A
:1004800008602248FC30006840F007001F49FC313A
:1004900008601E481038006820F004001B4910391D
:1004A00008601A481C38006820F0040017491C39FD
:1004B0000860081D006820F00400091D0860081D80
:1004C000006840F00400091D086004200F49091F5E
:1004D00008600E481038006840F004000B491039DD
:1004E00008600B48006820F460400949086009482A
:1004F000006840F002004FF0E021C1F80001FFF772
:1005000011FF10BD08E10F4000E00F4020540040F3
:1005100000E400E000E100E00C48006840F010005A
:100520000B49C1F8080100BF0848006800F010003E
:100530001028F9D1002007490860FF20054920391B
:1005400008603F200349FC310860704708E10F4014
:1005500000E00F40204402400C48006840F02000BA
:100560000B49C1F8080100BF0848006800F02000EE
:100570002028F9D10020074908600A2005492039C0
:1005800008600449FC3108607047000008E10F4032
:1005900000E00F402054024043F67F624FF0E0231A
:1005A0005A6100229A611A46126942F001021A61E8
:1005B000002108E000BF4FF0E022126902F480320F
:1005C000002AF8D0491C8142F4D34FF0E02212698E
:1005D00022F001024FF0E0231A617047C8B0FFF724
:1005E0009BFFFFF731FFFFF7B7FF00F041F84FF433
:1005F00090721A496846FFF7ABFE00242DE068466A
:1006000000EB44100068C00015490862684600EB22
:100610004410406840008860684600EB44108068E1
:1006200010490860694601EB44110869FFF7B4FFFF
:100630000D4800680D49097840EA8100C5B2684656
:1006400000EB4410C0680949097808400749087060
:10065000684600EB44101430445DD0E7800600008B
:1006600000500240FC430240FC53004000000020C8
:1006700000204FF0E0210861886104200861704784
:100680000000000001000000210000000100000047
:1006900070170000000100010101010100000000CD
:1006A0000000000001000000110000000100000037
:1006B000D007000002020002040204020000000051
:1006C00000000000010000000C000000010000001C
:1006D000701700000202030303030303000000007D
:1006E00000000000010000000A00000001000000FE
:1006F000D007000000020000040404040000000011
:1007000001000000000000000900000001000000DE
:10071000701700000405050504050505000000002C
:1007200000000000010000000900000001000000BE
:10073000F401000006060606060606060000000094
:10074000000000000000000009000000010000009F
:10075000F40100000707070707070707000000006C
:10076000000000000100000009000000010000007E
:10077000F401000008080808080808080000000044
:100780000000000000000000090000000000000060
:10079000F40100000002000004020000000000005C
:1007A000C00700000000002004000000C00200009C
:1007B000C40700000400002064040000DC02000004
:0407C0000000000035
:040000050000026D88
:00000001FF
