:020000040000FA
:10000000680400206D02000071020000730200000D
:100010007502000077020000790200000000000075
:100020000000000000000000000000007B02000053
:100030007D020000000000007F020000810200003D
:1000400083020000CD030000830200008302000051
:10005000830200008302000083020000830200008C
:10006000830200008302000083020000830200007C
:10007000830200008302000083020000830200006C
:10008000830200008302000083020000830200005C
:10009000830200008302000083020000830200004C
:1000A000830200008302000083020000830200003C
:1000B00083020000830200005D0400008302000050
:1000C000830200008302000083020000830200001C
:1000D000830200008302000083020000830200000C
:1000E00083020000830200008302000083020000FC
:1000F00083020000830200008302000083020000EC
:1001000083020000830200008302000083020000DB
:1001100083020000830200008302000083020000CB
:1001200083020000830200008302000083020000BB
:1001300083020000830200008302000083020000AB
:1001400000000000000000000000000000000000AF
:10015000830200008302000083020000830200008B
:10016000000000000000000000000000000000008F
:10017000000000000000000000000000000000007F
:10018000000000000000000000000000000000006F
:10019000000000000000000000000000000000005F
:1001A000000000000000000000000000000000004F
:1001B000830200008302000083020000830200002B
:1001C000830200008302000083020000830200001B
:1001D000830200008302000083020000830200000B
:1001E00083020000830200008302000083020000FB
:1001F00083020000830200008302000083020000EB
:10020000830200008302000083020000000000005F
:1002100083020000830200008302000083020000CA
:1002200083020000830200008302000083020000BA
:1002300083020000830200008302000083020000AA
:10024000830200008302000083020000830200009A
:10025000830200008302000083020000830200008A
:1002600083020000830200008302000000F00AB84D
:10027000FEE7FEE7FEE7FEE7FEE7FEE7FEE7FEE756
:10028000FEE7FEE700F002F800F03AF80AA090E876
:10029000000C82448344AAF10107DA4501D100F041
:1002A0002FF8AFF2090EBAE80F0013F0010F18BFD4
:1002B000FB1A43F001031847F00D0000100E000078
:1002C000103A24BF78C878C1FAD8520724BF30C882
:1002D00030C144BF04680C60704700000023002454
:1002E00000250026103A28BF78C1FBD8520728BF46
:1002F00030C148BF0B6070471FB51FBD10B510BDA2
:1003000000F029F81146FFF7F7FF00F049F900F077
:1003100047F803B4FFF7F2FF03BC00F04FF800000A
:1003200072B6704762B67047EFF3108072B67047CE
:1003300080F31088704730BF704702480249014A75
:10034000024B70476800002068040020680000200D
:10035000704770477047754600F02CF8AE460500B0
:100360006946534620F00700854618B020B5FFF7D0
:10037000E4FFBDE820404FF000064FF000074FF0CB
:1003800000084FF0000B21F00701AC46ACE8C009B3
:10039000ACE8C009ACE8C009ACE8C0098D467047BC
:1003A00010B50446AFF300802046BDE81040FFF7CB
:1003B000B0BF000000487047080000200149182025
:1003C000ABBEFEE7260002007047000010B5042017
:1003D0001449086005201449087014480978405CE5
:1003E0001349086013480078B8B900BF1248806903
:1003F00000F010000028F9D100BF0F48006844B297
:100400000EA000F03FFE04F1300148B200F026FEDD
:1004100000F030FE062CF0D100BF01200E4908701C
:1004200010BD00001C54004000000020A21000007D
:10043000FC5302400400002000D0004049276D20FA
:10044000737475636B20686572653A2073746174A8
:100450007573203D20000000020000201C48007839
:10046000022803D011201B49086070471948001F5B
:100470000068012815D0102822D1164908601648B6
:100480000078052801DB002002E013480078401CBA
:100490001149087011480978405C0E4920390860FC
:1004A00012E001200B4908600B4800780C490860F5
:1004B00000BF0B48806900F020000028F9D103E05C
:1004C00011200449086000BF00BF00BFCDE7000055
:1004D000010000201C54024000000020A210000077
:1004E00000D0004000B50022002300BF04E00F4808
:1004F000007808B1002000BD0D48806900F01000B0
:100500000028F4D17F2A01D1184600E010460346A6
:100510000748006842B20D2A02D0104600F09EFD46
:100520000D2AE3D100F0A6FD1846E4E70200002002
:1005300000C0004030B502460D46002400BF05E073
:100540001548007810B10020107030BD1348806944
:1005500000F010000028F3D11048006843B2082BC7
:1005600005D1521E002C0ADD601E84B207E00D2B5F
:1005700005D0AC4203DA601C84B21370521C1846DA
:1005800000F06CFD0D2BDAD10A2000F067FD002091
:10059000107000BFD9E700000200002000C000403A
:1005A000FE48006840F00300FC490860FC48006811
:1005B00040F02300FB49C1F8080100BFF74800687C
:1005C00000F00300032805D0F548006800F0230080
:1005D0002328F3D1F448006820F00300F2490860B2
:1005E0000846006840F003000860F048006820F00A
:1005F000FF00EE4908600846006840F011000860FE
:10060000E9482038006840F00300E74920390860D5
:10061000E6481038006840F00300E44910390860EB
:10062000E348006B20F00100E149086308204862BC
:100630002C2088620846C06A20F08000C862084604
:10064000C06A40F06000C8620846C06A20F010002E
:10065000C8620846C06A20F00800C8620846C06A3E
:1006600020F00200C8620846006B40F001000863F9
:10067000D048006820F00300CE49086008460068B2
:1006800040F003000860CC48006820F0FF00CA4931
:1006900008600846006840F011000860C54820382E
:1006A000006840F00300C34920390860C248103890
:1006B000006840F00300C04910390860BD48006878
:1006C00020F00400BB490860BA482038006820F0D8
:1006D0000400B84920390860B7481038006840F075
:1006E0000400B54910390860B2481038006820F09D
:1006F0000400B04910390860AE481C38006820F08A
:100700000400AC491C390860081D006820F0040092
:10071000091D0860081D006840F00400091D0860FC
:100720000420A449091F0860A2481038006840F05E
:100730000400A04910390860A048006820F4604017
:100740009E4908609E48006820F002004FF0E021BA
:10075000C1F800010846D0F8000140F00200C1F8DD
:1007600000019848006B20F00100964908630820BA
:1007700048622C2088620846C06A20F08000C86267
:100780000846C06A40F06000C8620846C06A20F0AF
:100790001000C8620846C06A20F00800C862084617
:1007A000C06A20F00200C8620846406B20F03800A2
:1007B00048630846406B40F0200048630846006BE1
:1007C00040F0010008637D48001D006820F46000CF
:1007D0007A49091D08604FF0E020D0F8000140F090
:1007E00040004FF0E021C1F8000100BF7648774992
:1007F0000860084600680128F8D0081D006840F02D
:100800000100091D086000BF00207049086008460B
:1008100000680028F8D06E48006820F011006C498C
:1008200008606B482038006820F0110068492039C2
:10083000086066481038006840F0110063491039BC
:1008400008606248001F006840F011005F49091FFE
:1008500008605F481038006820F011005C491039CA
:1008600008605B481C38006820F0110058491C39AA
:100870000860081D006820F01100091D0860081DAF
:10088000006820F01100091D086011205049091F5F
:1008900008604F481038006840F011004C4910398A
:1008A000086046481C30006840F4001043491C3181
:1008B00008604348006840F080404FF0E021C1F8F4
:1008C0000001FFF72FFD4248006820F00E0040496C
:1008D00008603F482038006840F00E003C4920394D
:1008E00008603A48001F006840F00E003749091FB1
:1008F0000860FBE03748007800284CD000203549DC
:10090000087035480078012846D134A000F0BAFBC1
:10091000FFF7E8FD0446A4F130003E4908700846A0
:100920000078012803DB08460078032808DD3AA098
:1009300000F0A8FB40A000F0A5FB0120354908709D
:1009400040480078012803D100203E49087010E09B
:1009500000BF1C48806900F020000028F9D1062063
:100960001849086000BF1748806900F0800000281F
:10097000F9D000BF1348806900F020000028F9D1A9
:10098000244800780F49086000BF0E48806900F0D5
:1009900080000028F9D08CE056E0000018E60F40F7
:1009A00008E10F4000E00F40204400402C4500408B
:1009B00000C00040205400402C55004000E400E0FE
:1009C00000E100E000D000404B434F4C2055024076
:1009D0002054024002000020040000200D0A547937
:1009E0007065203120666F72206D6F646520312C38
:1009F000203220666F72206D6F646520322C206F6C
:100A000072203320666F72206D6F646520333A2048
:100A10000000000001000020496E76616C696420CE
:100A2000646174612E204272696E67696E67207915
:100A30006F7520746F2000006D6F646520312E2E5D
:100A40002E0D0A000300002029480078002830D12C
:100A500028A000F017FB30A000F014FB334800780A
:100A6000303040B200F0FAFA00F004FB30A000F0A1
:100A700009FB00BF3448806900F010000028F9D15C
:100A800032A000F0FFFA304800682849087000BF23
:100A90002D48806900F040000028F9D130A000F016
:100AA000F1FA22480078303040B200F0D7FA00F076
:100AB000E1FA2F48007830B91C480078032802D1A9
:100AC00000F088F912E02A48007830B91748007819
:100AD000022802D100F056F908E02548007828B92C
:100AE00012480078012801D100F044F802E7000024
:100AF000040000200D0A696E20736C617665206D1C
:100B00006F64656368616E6765666C616720626CBF
:100B10006F636B0D0A0000000D0A6D6F646520287D
:100B20006265666F726529203D200000010000208B
:100B300057616974696E6720666F7220554152541F
:100B40002E2E2E200000000000D000404461746171
:100B50002072656365697665642E0D0A00000000E9
:100B60006D6F64652028616674657229203D2000E0
:100B70000200002010B505203E4908703E48097863
:100B8000405C3E49086074E03D480078012869D126
:100B90003CA000F077FA43A000F074FAFFF7A2FC43
:100BA00004464F48007800B110BD702C30D006DCF0
:100BB000622C21D0642C43D0672C4DD110E0722CD4
:100BC00002D0772C48D12FE000202A4908702A480B
:100BD0000978405C2949086042A000F053FA3FE0E0
:100BE00001202449087024480978405C23490860A2
:100BF00041A000F047FA33E002201E4908701E4869
:100C00000978405C1D49086040A000F03BFA27E0ED
:100C100003201849087018480978405C1749086093
:100C20003FA000F02FFA1BE0042012490870124880
:100C30000978405C1149086040A000F023FA0FE0F9
:100C400005200C4908700C480978405C0B49086085
:100C500043A000F017FA03E046A000F013FA00BF2B
:100C600000BF06E00648007818B91D48007800B1BA
:100C70009AE789E700000020A2100000FC53024020
:100C8000040000205479706520746F206368616EE1
:100C9000676520746865204C454420636F6C6F72F3
:100CA0003A0D0A000D0A28722965642C206728670E
:100CB0007265656E292C206228626C7565292C206E
:100CC0007028707572706C65292C20772877686998
:100CD0007465292C2064286461726B293A20000015
:100CE00002000020526564204C4544206973206F47
:100CF0006E2E0D0A00000000477265656E204C459F
:100D000044206973206F6E2E0D0A0000426C7565D9
:100D1000204C4544206973206F6E2E0D0A000000A0
:100D200052656420616E6420626C7565204C454498
:100D30007320617265206F6E2E0D0A005265642C5F
:100D400020677265656E2C20616E6420626C75652B
:100D5000204C45447320617265206F6E2E0D0A0091
:100D60004E6F204C45447320617265206F6E2E0DCE
:100D70000A0000004461746120696E76616C6964E8
:100D80002E0D0A0000200E4908700E480978405CBC
:100D90000D49086013E00D48007800B1704708E085
:100DA0000B4800680649087006480978405C064907
:100DB00008600748806900F040000028F0D1EAE7A9
:100DC00000000020A2100000FC530240020000209E
:100DD00000D0004030B5ADF5017D05208E4908708A
:100DE0008E480978405C8E49C1F8FC038D48007834
:100DF000012874D171E08CA000F044F9FF2141A8D2
:100E0000FFF798FB8F48007810B10DF5017D30BDDC
:100E100000242EE000BF8C48806900F020000028EC
:100E2000F9D141A800578849086000BF8648806909
:100E300000F020000028F9D100BF8348806900F04D
:100E400020000028F9D105207F49086000BF7E48B6
:100E5000806900F010000028F9D100BF7A480068CE
:100E600045B2062DFAD141A8005D00B902E0601C30
:100E7000C4B2CFE700BF002428E000BF72488069F9
:100E800000F010000028F9D16F48006840B201A9B5
:100E9000085500BF6C48806900F010000028F9D1A7
:100EA00000BF6948006845B2052DFAD100BF664809
:100EB000806900F020000028F9D10620624908600E
:100EC00001A8005D00B902E0601CC4B2D5E700BF14
:100ED00001A800F0D7F800F0CDF88CE7FFE7514803
:100EE000007800287ED193E000202CE003E0554BF1
:100EF0001B7803B189E7544B9B6903F01003002B67
:100F0000F5D1514B1B685BB241AC235400BF4E4B33
:100F10009B6903F01003002BF9D100BF4A4B1B68FB
:100F200059B20529FAD100BF474B9B6903F0200352
:100F3000002BF9D10623444C236041AB1B5C03B961
:100F400002E0431CD8B2D1E700BF002009E03FA374
:100F50001B5C01AC235401AB1B5C03B902E0431CD6
:100F6000D8B2F4E700BF00220BE041AB9B5C01ACC0
:100F7000235401AB1B5C03B904E0431CD8B2531CDF
:100F8000DAB2F2E700BF222301AC23542E2401ADD4
:100F9000431CEC540D24831CEC540A24C31CEC5455
:100FA0000024031DEC54002030E000BF264B1B68DA
:100FB00003F02003002BF9D101AB1B56224C236018
:100FC00000BF214B1B6803F02003002BF9D100BFA9
:100FD0001D4B9B6903F02003002BF9D105231A4C0C
:100FE000236000E015E000BF174B9B6903F010037E
:100FF000002BF9D100BF144B1B6859B20629FAD156
:1010000001AB1B5C03B902E0431CD8B2CDE700BFC3
:101010006AE700BFF9E6000000000020A21000000F
:101020000050024004000020506C6561736520652B
:101030006E7465722061206D6573736167652E0D36
:101040000A0000000200002000D000404920726524
:101050006365697665642022000000000449086029
:1010600000BF0349896901F020010029F9D17047C7
:1010700000C0004000B50D20FFF7F0FF0A20FFF789
:10108000EDFF00BD10B50346002407E01A571046D7
:10109000FFF7E4FF02B902E0601C84B2F6E700BF8C
:1010A00010BD020804060E00C81000000000002059
:1010B00008000000C0020000D0100000080000205E
:1010C00060040000DC0200000003010100000000D9
:040000050000026D88
:00000001FF
