:020000040000FA
:10000000680400206D02000071020000730200000D
:100010007502000077020000790200000000000075
:100020000000000000000000000000007B02000053
:100030007D020000000000007F020000810200003D
:10004000830200008302000083020000830200009C
:10005000830200008302000083020000830200008C
:10006000830200008302000083020000830200007C
:10007000830200008302000083020000830200006C
:10008000830200008302000083020000830200005C
:10009000830200008302000083020000830200004C
:1000A000830200008302000083020000830200003C
:1000B000830200008302000031040000830200007C
:1000C000830200008302000083020000830200001C
:1000D000830200008302000083020000830200000C
:1000E00083020000830200008302000083020000FC
:1000F00083020000830200008302000083020000EC
:1001000083020000830200008302000083020000DB
:1001100083020000830200008302000083020000CB
:1001200083020000830200008302000083020000BB
:1001300083020000830200008302000083020000AB
:1001400000000000000000000000000000000000AF
:10015000830200008302000083020000830200008B
:10016000000000000000000000000000000000008F
:10017000000000000000000000000000000000007F
:10018000000000000000000000000000000000006F
:10019000000000000000000000000000000000005F
:1001A000000000000000000000000000000000004F
:1001B000830200008302000083020000830200002B
:1001C000830200008302000083020000830200001B
:1001D000830200008302000083020000830200000B
:1001E00083020000830200008302000083020000FB
:1001F00083020000830200008302000083020000EB
:10020000830200008302000083020000000000005F
:1002100083020000830200008302000083020000CA
:1002200083020000830200008302000083020000BA
:1002300083020000830200008302000083020000AA
:10024000830200008302000083020000830200009A
:10025000830200008302000083020000830200008A
:1002600083020000830200008302000000F00AB84D
:10027000FEE7FEE7FEE7FEE7FEE7FEE7FEE7FEE756
:10028000FEE7FEE700F002F800F03AF80AA090E876
:10029000000C82448344AAF10107DA4501D100F041
:1002A0002FF8AFF2090EBAE80F0013F0010F18BFD4
:1002B000FB1A43F001031847980C0000B80C00002B
:1002C000103A24BF78C878C1FAD8520724BF30C882
:1002D00030C144BF04680C60704700000023002454
:1002E00000250026103A28BF78C1FBD8520728BF46
:1002F00030C148BF0B6070471FB51FBD10B510BDA2
:1003000000F05BF81146FFF7F7FF00F0F5F900F099
:1003100079F803B4FFF7F2FF03BC00F081F80000A6
:1003200072B6704762B67047EFF3108072B67047CE
:1003300080F31088704730BF704702480249014A75
:10034000024B70476800002068040020680000200D
:1003500010B5203AC0F00B80B1E81850203AA0E860
:100360001850B1E81850A0E81850BFF4F5AF5FEA94
:10037000027C24BFB1E81850A0E8185044BF18C947
:1003800018C0BDE810405FEA827C24BF51F8043BEE
:1003900040F8043B08BF7047D20728BF31F8023B42
:1003A00048BF11F8012B28BF20F8023B48BF00F8D6
:1003B000012B7047704770477047754600F02CF866
:1003C000AE4605006946534620F00700854618B042
:1003D00020B5FFF7B2FFBDE820404FF000064FF018
:1003E00000074FF000084FF0000B21F00701AC466A
:1003F000ACE8C009ACE8C009ACE8C009ACE8C00989
:100400008D46704710B50446AFF300802046BDE826
:100410001040FFF77EBF0000004870470400002036
:1004200001491820ABBEFEE726000200704700001D
:1004300001211F4A117000201BE04FF0E0210969E3
:1004400041F001014FF0E022116100BF4FF0E021C7
:10045000096901F480310029F8D14FF0E0210969E0
:1004600021F001014FF0E022116100219161411C56
:10047000C8B20428E1DB0F490968012908D0102916
:100480000ED10C4A121D116001210B4A11700CE0B3
:100490000121084A121D11600021074A117004E071
:1004A0001121044A121D116000BF00BF70470000F7
:1004B00002000020185402400100002010B5002462
:1004C00004E00021012000F0F1F8641CB4F5FC7F89
:1004D000F7DB0021084600F0D0F810BD08B5494808
:1004E000006840F00100474908604748006840F054
:1004F00001004649C1F8080143480068009044489B
:10050000006840F0C000424908604148203000685F
:1005100040F02C003E49203108600846006820F079
:10052000C00008603B48006840F0EC0039490860B2
:10053000384810300068384908403849084435497F
:10054000103108600846006820F07F400860081FEE
:10055000006820F0EC00091F08603148406820F076
:1005600002002F4948600846406820F004004860B7
:100570002C48006820F00F002A4908600420284910
:100580000861084600684FF6C07188432449086036
:100590000846006820F0300008600846006820F037
:1005A0000F00C01D08600846406840F00200486027
:1005B00000204FF04021C1F80002009002E00098B6
:1005C000401C009000980A28F9D380201649086042
:1005D0002121002000F06AF86FF04001002000F0B7
:1005E00065F80421002000F061F81421002000F0DB
:1005F0005DF82021002000F059F80C21002000F0C7
:1006000055F808BD1CE60F4008E10F4000E00F4020
:10061000004400401C450040FF000FFF0022200066
:1006200000800040C88F00400042004070B5054681
:100630000021012000F03AF800240AE0A5F1200092
:1006400000EB8000064A10440157012000F02EF80C
:10065000641C052CF2DB0021012000F027F870BD9E
:10066000700D000010B5044603E02078FFF7DEFFB0
:10067000641C20780028F8D110BD70B504460D46E2
:100680000B2C01DC052D00DD70BDC4EBC40040F077
:10069000800041B2002000F009F845F0400041B26E
:1006A000002000F003F800BFEEE7000098B900BF9B
:1006B0000F4AD26802F01002102AF9D000220D4B26
:1006C0001A600B4A916000BF094AD26802F010021A
:1006D000102AF9D00BE000BF054AD26802F00202EE
:1006E000002AF9D04022034B1A60014A91607047FA
:1006F0000080004000410040BCB0F022D64968466E
:10070000FFF726FE0020D5490870D548006840F460
:100710008010D449C1F8000100BFD148006800F43E
:100720008010B0F5801FF8D1CD480830006840F047
:100730002200CC49C1F8080100BFC9480830006850
:1007400000F022002228F8D1C548006840F480104B
:10075000C449C1F8000100BFC148006800F480101E
:10076000B0F5801FF8D1FFF7B9FE00BFBE48BF4902
:100770000860084600680028F8D1081D006840F0AD
:100780000100091D086000BF0020B8490860084644
:1007900000680028F8D0F020B5490860B548B6498F
:1007A0000860B3482038006840F00F00B049203995
:1007B0000860B1481038006840F0FF00AE491039B9
:1007C00008600020AD490860AC4980390864A3483E
:1007D000007800EB4000694601EBC0004088A74963
:1007E00020310860A549803908669C48007800EBF4
:1007F0004000694601EBC0008088A04924310860B0
:100800009E498039486640F22B109C49103108609F
:100810009A49803908659148007800EB40006946A4
:1008200001EBC000806895491C310860091F086011
:1008300092498039C86588650846006C40F001001F
:1008400008640846D0F8800040F00100C1F880003C
:100850000846806840F00F0088608948006820F0F2
:100860001F00874908600846006840F00E000860D5
:100870007E481038006840F011007C49103908604B
:100880007A48001F006840F01F007849091F08607F
:100890007B481030006820F0110079491031086061
:1008A000112077491C31086075481030006840F00D
:1008B00011007349103108607248006820F460002C
:1008C000704908604FF0E020D0F8000140F080400F
:1008D0006D4908606D484FF0E02148610020886153
:1008E0000846006940F0040008616948D0F8FC033C
:1008F00020F00F006649C1F8FC035D482438006809
:100900005649097801EB41011DF83110084360494F
:10091000C1F8FC035F48D0F8FC0320F00E005D49ED
:10092000C1F8FC035648001F00684C49097801EBE8
:1009300041016A4602EBC101897908435549C1F872
:10094000FC03FFF7BBFD4549097801EB41016A460D
:1009500002EBC10101F10E00FFF784FE7BE04E487F
:100960000078002877D03D48007800EB40006946C9
:1009700001EBC0000C3049490978405C37490870E8
:100980003B482438006820F00F004149C1F8FC03BF
:100990003748243800683149097801EB41011DF8D6
:1009A000311008433A49C1F8FC032C48007800EBA9
:1009B0004000694601EBC0004088304920310860A2
:1009C0002E49803908662548007800EB40006946CA
:1009D00001EBC0008088294924310860274980390B
:1009E00048662C48D0F8FC0320F00E002949C1F8D5
:1009F000FC032348001F00681849097801EB4101F6
:100A00006A4602EBC101897908432249C1F8FC0317
:100A10001248007800EB4000694601EBC000806896
:100A200016491C310860091F086014498039C865DF
:100A30008865FFF743FD0949097801EB41016A46E2
:100A400002EBC10101F10E00FFF70CFE002012497C
:100A500008701249087082E7800C00000000002036
:100A600000E10F4000E00F404B434F4C2055024047
:100A700020540040000044442C5500408080024037
:100A8000005402401CE400E000E100E0FF083D00EB
:100A900000500040005002400200002001000020F1
:100AA000000000000000005F0000000700070014C5
:100AB0007F147F14242A7F2A122313086462364984
:100AC0005522500005030000001C22410000412275
:100AD0001C0014083E081408083E080800503000A6
:100AE00000080808080800606000002010080402E0
:100AF0003E5149453E00427F4000426151494621F6
:100B000041454B311814127F1027454545393C4A61
:100B100049493001710905033649494936064949B1
:100B2000291E003636000000563600000814224107
:100B3000001414141414004122140802015109066F
:100B4000324979413E7E1111117E7F494949363E35
:100B5000414141227F4141221C7F494949417F094E
:100B60000909013E4149497A7F0808087F00417F11
:100B700041002040413F017F081422417F40404016
:100B8000407F020C027F7F0408107F3E4141413EBE
:100B90007F090909063E4151215E7F091929464610
:100BA0004949493101017F01013F4040403F1F2039
:100BB00040201F3F4038403F63140814630708700B
:100BC00008076151494543007F4141000204081074
:100BD000200041417F0004020102044040404040A7
:100BE000000102040020545454787F4844443838AB
:100BF00044444420384444487F3854545418087EB0
:100C00000901020C5252523E7F0804047800447DD0
:100C100040002040443D007F1028440000417F40B8
:100C2000007C041804787C08040478384444443870
:100C30007C14141408081414187C7C080404084854
:100C400054545420043F4440203C4040207C1C200D
:100C500040201C3C4030403C44281028440C50505C
:100C6000503C4464544C44000836410000007F006E
:100C700000004136080010080810081F247C241FBB
:100C80000F008C000C080800770000000501537469
:100C900061746520300000000F008C000C08080013
:100CA000B300000006025374617465203100000037
:100CB0000F008C000C080800EF00000007035374BD
:100CC00061746520320000000F008C000C080800E1
:100CD000250100000804537461746520330000008E
:100CE0000F008C000C080200010000000900537482
:100CF00061746520340000000000C800080C040086
:100D00007700000000065374617465203500000010
:100D10000000C800080C0400B30000000107537471
:100D200061746520360000000000C800080C040053
:100D3000EF00000002085374617465203700000062
:100D40000000C800080C04002501000003095374CA
:100D500061746520380000000000C800080C020023
:100D6000010000000405537461746520390000001F
:100D7000000000000000005F0000000700070014F2
:100D80007F147F14242A7F2A1223130864623649B1
:100D90005522500005030000001C224100004122A2
:100DA0001C0014083E081408083E080800503000D3
:100DB000000808080808006060000020100804020D
:100DC0003E5149453E00427F400042615149462123
:100DD00041454B311814127F1027454545393C4A8F
:100DE00049493001710905033649494936064949DF
:100DF000291E003636000000563600000814224135
:100E0000001414141414004122140802015109069C
:100E1000324979413E7E1111117E7F494949363E62
:100E2000414141227F4141221C7F494949417F097B
:100E30000909013E4149497A7F0808087F00417F3E
:100E400041002040413F017F081422417F40404043
:100E5000407F020C027F7F0408107F3E4141413EEB
:100E60007F090909063E4151215E7F09192946463D
:100E70004949493101017F01013F4040403F1F2066
:100E800040201F3F4038403F631408146307087038
:100E900008076151494543007F41410002040810A1
:100EA000200041417F0004020102044040404040D4
:100EB000000102040020545454787F4844443838D8
:100EC00044444420384444487F3854545418087EDD
:100ED0000901020C5252523E7F0804047800447DFE
:100EE00040002040443D007F1028440000417F40E6
:100EF000007C041804787C0804047838444444389E
:100F00007C14141408081414187C7C080404084881
:100F100054545420043F4440203C4040207C1C203A
:100F200040201C3C4030403C44281028440C505089
:100F3000503C4464544C44000836410000007F009B
:100F400000004136080010080810081F247C241FE8
:100F5000700F00000000002004000000C00200002C
:100F6000740F00000400002064040000DC02000094
:040F7000000000007D
:040000050000026D88
:00000001FF
