:020000040000FA
:10000000600400206D020000710200007302000015
:100010007502000077020000790200000000000075
:100020000000000000000000000000007B02000053
:100030007D020000000000007F020000810200003D
:10004000830200008302000083020000830200009C
:10005000830200008302000083020000830200008C
:10006000830200008302000083020000830200007C
:10007000830200008302000083020000830200006C
:10008000830200008302000083020000830200005C
:10009000830200008302000083020000830200004C
:1000A000830200008302000083020000830200003C
:1000B0008302000083020000B103000083020000FD
:1000C000830200008302000083020000830200001C
:1000D000830200008302000083020000830200000C
:1000E00083020000830200008302000083020000FC
:1000F00083020000830200008302000083020000EC
:1001000083020000830200008302000083020000DB
:1001100083020000830200008302000083020000CB
:1001200083020000830200008302000083020000BB
:1001300083020000830200008302000083020000AB
:1001400000000000000000000000000000000000AF
:10015000830200008302000083020000830200008B
:10016000000000000000000000000000000000008F
:10017000000000000000000000000000000000007F
:10018000000000000000000000000000000000006F
:10019000000000000000000000000000000000005F
:1001A000000000000000000000000000000000004F
:1001B000830200008302000083020000830200002B
:1001C000830200008302000083020000830200001B
:1001D000830200008302000083020000830200000B
:1001E00083020000830200008302000083020000FB
:1001F00083020000830200008302000083020000EB
:10020000830200008302000083020000000000005F
:1002100083020000830200008302000083020000CA
:1002200083020000830200008302000083020000BA
:1002300083020000830200008302000083020000AA
:10024000830200008302000083020000830200009A
:10025000830200008302000083020000830200008A
:1002600083020000830200008302000000F00AB84D
:10027000FEE7FEE7FEE7FEE7FEE7FEE7FEE7FEE756
:10028000FEE7FEE700F002F800F02CF80AA090E884
:10029000000C82448344AAF10107DA4501D100F041
:1002A00021F8AFF2090EBAE80F0013F0010F18BFE2
:1002B000FB1A43F0010318474403000054030000F5
:1002C0000023002400250026103A28BF78C1FBD85F
:1002D000520728BF30C148BF0B6070471FB51FBD14
:1002E00010B510BD00F029F81146FFF7F7FF00F038
:1002F000A5F800F047F803B4FFF7F2FF03BC00F0E5
:100300004FF8000072B6704762B67047EFF3108086
:1003100072B6704780F31088704730BF704702484C
:100320000249014A024B704760000020600400202F
:1003300060000020704770477047754600F02CF849
:10034000AE4605006946534620F00700854618B0C2
:1003500020B5FFF7E4FFBDE820404FF000064FF066
:1003600000074FF000084FF0000B21F00701AC46EA
:10037000ACE8C009ACE8C009ACE8C009ACE8C00909
:100380008D46704710B50446AFF300802046BDE8A7
:100390001040FFF7B0BF0000004870470000002089
:1003A00001491820ABBEFEE726000200704700009E
:1003B0001F48006801281AD0102832D11C49091D95
:1003C00008601C480068FF2810D81A48001D006803
:1003D000FF280BD81748006820301749C1F81801CA
:1003E0000846D0F81C012030C1F81C011EE0012095
:1003F0000F49091D08600F4800683F2810D30D48B9
:10040000001D00683F280BD30A48006820380A49BD
:10041000C1F818010846D0F81C012038C1F81C01A9
:1004200004E011200249091D086000BF00BF7047A9
:10043000185402401891024000900240664800683B
:1004400040F480106549C1F8000100BF62480068AF
:1004500000F48010B0F5801FF8D15F4808300068C4
:1004600040F020005D49C1F8080100BF5A4808303B
:10047000006800F020002028F8D15948006840F0BA
:1004800002005749086000BF5548006800F00200AC
:100490000228F9D100BF5348534908600846006854
:1004A0000028F8D1081D006840F00100091D08600F
:1004B00000BF00204C490860084600680028F8D0BA
:1004C0004A48006820F01D00484908600846006856
:1004D00040F00C00086044480C30006820F47F4075
:1004E00041490C3108600846006840F4AA400860A1
:1004F0003A48006E40F48010384908660846006E9D
:1005000020F460200866002039490860C820394975
:10051000C1F8200140F6084035492431086040F216
:100520003F103349103108609F203149183108606D
:100530003049C1F81C010846D0F8000140F0010024
:10054000C1F800010846806840F0C0008860274874
:100550002038006820F01F00244920390860084630
:10056000006840F00C0008601F481038006840F038
:1005700011001D49103908601B48001F006840F039
:100580001D001949091F086018481038006820F03C
:10059000110016491039086011201449091F08601C
:1005A00012481038006840F01100104910390860F6
:1005B0001148006820F460000F4908604FF0E02007
:1005C000D0F8000140F080404FF0E021C1F8000178
:1005D00001E0FFF7A2FEFCE700E10F4000E00F4062
:1005E00040E60F404B434F4C205502402054024000
:1005F00000910240009002401CE400E00C06000064
:0C0600000000002060040000C0020000A8
:040000050000026D88
:00000001FF
