:020000040000FA
:10000000581000206D020000710200007302000011
:100010007502000077020000790200000000000075
:100020000000000000000000000000007B02000053
:100030007D020000000000007F020000810400003B
:10004000830200008302000083020000830200009C
:10005000830200008302000083020000830200008C
:10006000830200008302000083020000830200007C
:10007000830200008302000083020000830200006C
:10008000830200008302000083020000830200005C
:10009000830200008302000083020000830200004C
:1000A000830200008302000083020000830200003C
:1000B00083020000830200000D04000083020000A0
:1000C000830200008302000083020000830200001C
:1000D000830200008302000083020000830200000C
:1000E00083020000830200008302000083020000FC
:1000F00083020000830200008302000083020000EC
:1001000083020000830200008302000083020000DB
:1001100083020000830200008302000083020000CB
:1001200083020000830200008302000083020000BB
:1001300083020000830200008302000083020000AB
:1001400000000000000000000000000000000000AF
:10015000830200008302000083020000830200008B
:10016000000000000000000000000000000000008F
:10017000000000000000000000000000000000007F
:10018000000000000000000000000000000000006F
:10019000000000000000000000000000000000005F
:1001A000000000000000000000000000000000004F
:1001B000830200008302000083020000830200002B
:1001C000830200008302000083020000830200001B
:1001D000830200008302000083020000830200000B
:1001E00083020000830200008302000083020000FB
:1001F00083020000830200008302000083020000EB
:10020000830200008302000083020000000000005F
:1002100083020000830200008302000083020000CA
:1002200083020000830200008302000083020000BA
:1002300083020000830200008302000083020000AA
:10024000830200008302000083020000830200009A
:10025000830200008302000083020000830200008A
:1002600083020000830200008302000000F00AB84D
:10027000FEE7FEE7FEE7FEE7FEE7FEE7FEE7FEE756
:10028000FEE7FEE700F002F800F05AF80AA090E856
:10029000000C82448344AAF10107DA4501D100F041
:1002A0004FF8AFF2090EBAE80F0013F0010F18BFB4
:1002B000FB1A43F00103184790050000B005000049
:1002C0000A444FF0000C10F8013B13F0070408BF7C
:1002D00010F8014B1D1108BF10F8015B641E05D01A
:1002E00010F8016B641E01F8016BF9D113F0080FCF
:1002F0001EBF10F8014BAD1C0C1B09D16D1E58BF61
:1003000001F801CBFAD505E014F8016B01F8016B97
:100310006D1EF9D59142D6D370470000002300240A
:1003200000250026103A28BF78C1FBD8520728BF05
:1003300030C148BF0B6070471FB51FBD10B510BD61
:1003400000F029F81146FFF7F7FF00F0EFF800F092
:1003500047F803B4FFF7F2FF03BC00F04FF80000CA
:1003600072B6704762B67047EFF3108072B670478E
:1003700080F31088704730BF704702480249014A35
:10038000024B7047580C002058100020580C0020D9
:10039000704770477047754600F02CF8AE46050070
:1003A0006946534620F00700854618B020B5FFF790
:1003B000E4FFBDE820404FF000064FF000074FF08B
:1003C00000084FF0000B21F00701AC46ACE8C00973
:1003D000ACE8C009ACE8C009ACE8C0098D4670477C
:1003E00010B50446AFF300802046BDE81040FFF78B
:1003F000B0BF000000487047F80B002001491820EA
:10040000ABBEFEE72600020070470000002001E0BE
:10041000411C88B24FF6FE718842F9DB154800682E
:1004200000F0110001280DD010281BD11149091D21
:1004300008601148007808B9012000E000200E494A
:10044000087014E001200B49091D08600B48007872
:10045000401C0A49087008460078022801DD002087
:10046000087004E011200349091D086000BF00BFA7
:100470007047000018540240F40B0020F50B0020D8
:100480004FF0E020006920F001004FF0E02108610A
:100490001E48006800F0800090B1802821D11B48E0
:1004A000006820F080004FF04021C1F8FC0318489C
:1004B000D0F8FC0320F002001549C1F8FC0319E054
:1004C0001248006840F080004FF04021C1F8FC0362
:1004D0000F48D0F8FC0340F002000D49C1F8FC03BE
:1004E00008E00A48006840F080004FF04021C1F861
:1004F000FC0300BF00BF00204FF0E02188610846E8
:10050000006940F00100086170470000FC430040B2
:100510000050024008B549F61640009002E00098ED
:10052000401E009000980028F9D108BD6E48006870
:1005300040F021006D49C1F8080100BF6C48006817
:1005400000F021002128F9D16A48006840F08000BD
:100550006849086067482030006820F080006549DD
:10056000203108606448006840F0800062490860FB
:1005700061481430006840F080005F491431086021
:100580005C48001F006820F080004FF04021C1F857
:10059000FC0300BF59485A4908600846006800F04B
:1005A00001000028F6D1081D006840F01300091D65
:1005B000086000BF0020524908600846006800F04B
:1005C00001000028F6D04F48006820F011004D4986
:1005D00008600846006840F0020008604948203082
:1005E000006820F013004749203108604448103863
:1005F000006840F011004249103908604048001F6F
:10060000006840F013003E49091F08603D48001F84
:10061000006820F002003C49C1F8FC033948103062
:10062000006820F011003749103108603548001D7E
:10063000006820F011003349091D08600846006871
:1006400020F0110008602F480C30006820F01100E5
:100650002C490C31086011202A491C3108602948B6
:100660001030006840F0110026491031086027481A
:10067000006820F46000254908600846006840F4DE
:10068000001008604FF0E020D0F8000140F08040FA
:100690001F49086006204FF0E021086100208861B2
:1006A0001A481038006820F0604018491039086076
:1006B0004FF0E020D0F8000140F400404FF0E0217E
:1006C000C1F80001FFF74EFE0DE01248007850B16E
:1006D00011490978C1EB0121104A02EB81000E4952
:1006E000097800F01DF8F0E708E10F4000E00F4046
:1006F00008E60F4000440040084500404B434F4C83
:100700002055024000540240005002401CE400E02A
:1007100000E100E0F40B0020F50B002000000020B9
:1007200070B502460D4600215FE032F82100FF2837
:1007300008D14FF0E020006920F001004FF0E023E5
:10074000186115E032F82100FE2804D1FFF7E2FE1F
:10075000481CC1B249E032F821002B4B33F810009D
:100760004FF0E02358611846006940F0010018611D
:1007700000262CE02548007818B1254800788542ED
:1007800018D04FF0E020006920F001004FF0E02386
:1007900018612048006820F080004FF04023C3F823
:1007A000FC031D48D0F8FC0320F002001A4BC3F8EC
:1007B000FC030EE0002403E0FFF7ACFE601CC4B2B3
:1007C00002EB81008078A042F6DC701CC6B2042ED9
:1007D000D0DB00BF4FF0E020006920F001004FF0B7
:1007E000E0231861481CC1B200BF02EB8100807891
:1007F00000289AD1002403E0FFF78CFE601CC4B2ED
:10080000282CF9DB70BD00001C080000F40B002050
:10081000F50B0020FC4300400050024046774B6A35
:10082000B25E8B59B84F0647423FB93B3535672F0B
:10083000BE2CDC278323A31FDD1D9A1AB3175F1676
:10084000EE13C111D20F0000680800000000002064
:10085000F80B0000C002000018090000F80B00208F
:10086000600400001C030000120B120212FE1201B1
:100870002908120C1A040812041A0E041A0D043A5C
:10088000FF100910205A0F24E9201A12109A104064
:10089000120C3A08245A112429086920494402FFFD
:1008A0000801FF01FF0180121012041A0F045A0EF2
:1008B00008291012FE9A01083A0818290C89087AAA
:1008C00008207A12084914091C4C8908A95489384F
:1008D00002FF0801FF01FF0170120E120412FE3A1E
:1008E00001085A120C29085A130C2908121212086E
:1008F0005A111029085A100C29085A0F0C29081AE5
:100900000E28A944091834092828094EA001FF011E
:08091000FF01FF0113000000CC
:040000050000026D88
:00000001FF
