:020000040000FA
:10000000680400206D02000071020000730200000D
:100010007502000077020000790200000000000075
:100020000000000000000000000000007B02000053
:100030007D020000000000007F020000810200003D
:10004000830200008302000083020000830200009C
:10005000830200008302000083020000830200008C
:10006000830200008302000083020000830200007C
:10007000830200008302000083020000830200006C
:10008000830200008302000083020000830200005C
:10009000830200008302000083020000830200004C
:1000A000830200008302000083020000830200003C
:1000B000830200008302000083020000830200002C
:1000C000830200008302000083020000830200001C
:1000D000830200008302000083020000830200000C
:1000E00083020000830200008302000083020000FC
:1000F00083020000830200008302000083020000EC
:1001000083020000830200008302000083020000DB
:1001100083020000830200008302000083020000CB
:1001200083020000830200008302000083020000BB
:1001300083020000830200008302000083020000AB
:1001400000000000000000000000000000000000AF
:10015000830200008302000083020000830200008B
:10016000000000000000000000000000000000008F
:10017000000000000000000000000000000000007F
:10018000000000000000000000000000000000006F
:10019000000000000000000000000000000000005F
:1001A000000000000000000000000000000000004F
:1001B000830200008302000083020000830200002B
:1001C000830200008302000083020000830200001B
:1001D000830200008302000083020000830200000B
:1001E00083020000830200008302000083020000FB
:1001F00083020000830200008302000083020000EB
:10020000830200008302000083020000000000005F
:1002100083020000830200008302000083020000CA
:1002200083020000830200008302000083020000BA
:1002300083020000830200008302000083020000AA
:10024000830200008302000083020000830200009A
:10025000830200008302000083020000830200008A
:1002600083020000830200008302000000F00AB84D
:10027000FEE7FEE7FEE7FEE7FEE7FEE7FEE7FEE756
:10028000FEE7FEE700F002F800F03AF80AA090E876
:10029000000C82448344AAF10107DA4501D100F041
:1002A0002FF8AFF2090EBAE80F0013F0010F18BFD4
:1002B000FB1A43F0010318478C020000AC02000057
:1002C000103A24BF78C878C1FAD8520724BF30C882
:1002D00030C144BF04680C60704700000023002454
:1002E00000250026103A28BF78C1FBD8520728BF46
:1002F00030C148BF0B6070471FB51FBD10B510BDA2
:1003000000F029F81146FFF7F7FF00F0F7F800F0CA
:1003100047F803B4FFF7F2FF03BC00F04FF800000A
:1003200072B6704762B67047EFF3108072B67047CE
:1003300080F31088704730BF704702480249014A75
:10034000024B70476800002068040020680000200D
:10035000704770477047754600F02CF8AE460500B0
:100360006946534620F00700854618B020B5FFF7D0
:10037000E4FFBDE820404FF000064FF000074FF0CB
:1003800000084FF0000B21F00701AC46ACE8C009B3
:10039000ACE8C009ACE8C009ACE8C0098D467047BC
:1003A00010B50446AFF300802046BDE81040FFF7CB
:1003B000B0BF000000487047040000200149182029
:1003C000ABBEFEE7260002007047000010B50446F1
:1003D0000A48007800EB4000094908448078074942
:1003E00008700846007800EB40000549085C0549A4
:1003F000C863204600F072F810BD00000000002025
:10040000380500000070004010B504460A48007826
:1004100000EB400009490844407807490870084645
:10042000007800EB40000549085C0549C863204698
:1004300000F054F810BD0000000000203805000056
:100440000070004010B51B48006840F008001949D2
:10045000086000F037F80020174908701748006856
:1004600020F00F0015490860081D00686FF30F00A9
:10047000091D08601248006840F00F00104908602C
:100480000F482030006820F00F000D49203108602F
:100490000A482038006840F00F00084920390860F9
:1004A00006480C38006840F00F0004490C39086019
:1004B00010BD000008E60F40000000202875004035
:1004C0000074004000204FF0E02108616FF07F4091
:1004D00048610020886105200861704708B54FF029
:1004E000E022916900BF4FF0E02292698A1A22F05F
:1004F0007F420092009A8242F5D908BD0024FFF79E
:10050000A1FF14E0002403E00948FFF77DFF641C0D
:10051000B4F57A7FF8D30748FFF7E0FF002403E043
:100520000348FFF753FF641CB4F57A7FF8D3E9E77B
:100530000071020000127A000C010306020003039E
:100540000109000264050000000000200400000012
:10055000C0020000680500000400002064040000E0
:08056000DC02000000000000B5
:040000050000026D88
:00000001FF
