:020000040000FA
:10000000680400206D02000071020000730200000D
:100010007502000077020000790200000000000075
:100020000000000000000000000000007B02000053
:100030007D020000000000007F020000810200003D
:10004000830200008302000083020000830200009C
:10005000830200008302000083020000830200008C
:10006000830200008302000083020000830200007C
:10007000830200008302000083020000830200006C
:10008000830200008302000083020000830200005C
:10009000830200008302000083020000830200004C
:1000A000830200008302000083020000830200003C
:1000B000830200008302000031040000830200007C
:1000C000830200008302000083020000830200001C
:1000D000830200008302000083020000830200000C
:1000E00083020000830200008302000083020000FC
:1000F00083020000830200008302000083020000EC
:1001000083020000830200008302000083020000DB
:1001100083020000830200008302000083020000CB
:1001200083020000830200008302000083020000BB
:1001300083020000830200008302000083020000AB
:1001400000000000000000000000000000000000AF
:10015000830200008302000083020000830200008B
:10016000000000000000000000000000000000008F
:10017000000000000000000000000000000000007F
:10018000000000000000000000000000000000006F
:10019000000000000000000000000000000000005F
:1001A000000000000000000000000000000000004F
:1001B000830200008302000083020000830200002B
:1001C000830200008302000083020000830200001B
:1001D000830200008302000083020000830200000B
:1001E00083020000830200008302000083020000FB
:1001F00083020000830200008302000083020000EB
:10020000830200008302000083020000000000005F
:1002100083020000830200008302000083020000CA
:1002200083020000830200008302000083020000BA
:1002300083020000830200008302000083020000AA
:10024000830200008302000083020000830200009A
:10025000830200008302000083020000830200008A
:1002600083020000830200008302000000F00AB84D
:10027000FEE7FEE7FEE7FEE7FEE7FEE7FEE7FEE756
:10028000FEE7FEE700F002F800F03AF80AA090E876
:10029000000C82448344AAF10107DA4501D100F041
:1002A0002FF8AFF2090EBAE80F0013F0010F18BFD4
:1002B000FB1A43F001031847840E0000A40E00004F
:1002C000103A24BF78C878C1FAD8520724BF30C882
:1002D00030C144BF04680C60704700000023002454
:1002E00000250026103A28BF78C1FBD8520728BF46
:1002F00030C148BF0B6070471FB51FBD10B510BDA2
:1003000000F05BF81146FFF7F7FF00F0C1F900F0CD
:1003100079F803B4FFF7F2FF03BC00F081F80000A6
:1003200072B6704762B67047EFF3108072B67047CE
:1003300080F31088704730BF704702480249014A75
:10034000024B70476800002068040020680000200D
:1003500010B5203AC0F00B80B1E81850203AA0E860
:100360001850B1E81850A0E81850BFF4F5AF5FEA94
:10037000027C24BFB1E81850A0E8185044BF18C947
:1003800018C0BDE810405FEA827C24BF51F8043BEE
:1003900040F8043B08BF7047D20728BF31F8023B42
:1003A00048BF11F8012B28BF20F8023B48BF00F8D6
:1003B000012B7047704770477047754600F02CF866
:1003C000AE4605006946534620F00700854618B042
:1003D00020B5FFF7B2FFBDE820404FF000064FF018
:1003E00000074FF000084FF0000B21F00701AC466A
:1003F000ACE8C009ACE8C009ACE8C009ACE8C00989
:100400008D46704710B50446AFF300802046BDE826
:100410001040FFF77EBF0000004870470400002036
:1004200001491820ABBEFEE726000200704700001D
:100430000D480068012808D010280DD10A49091D6F
:1004400008600220094908700BE001200649091DD7
:1004500008600749087004E01F200349091D08606F
:1004600000BF00BF70470000185402400000002089
:100470000100002010B5002404E00021012000F05C
:10048000E1F8641CB4F5FC7FF7DB0021084600F0BE
:10049000C0F810BD08B54348006840F0010041496C
:1004A00008604148006840F0C0003F4908603E488D
:1004B0002030006840F02C003B492031086008469D
:1004C000006820F0C00008603848006840F0EC0088
:1004D00036490860354810300068354908403549CC
:1004E00008443249103108600846006820F07F4017
:1004F0000860081F006820F0EC00091F08602E4803
:10050000406820F002002C4948600846406820F00E
:10051000040048602948006820F00F00274908605F
:10052000042025490861084600684FF6C0718843D9
:10053000214908600846006820F03000086008463D
:10054000006820F00F00C01D08600846406840F0B9
:100550000200486000201A490860009002E00098FC
:10056000401C009000980A28F9D3802014490860A4
:100570002121002000F066F86FF04001002000F01B
:1005800061F80421002000F05DF81421002000F043
:1005900059F82021002000F055F80C21002000F02F
:1005A00051F808BD1CE60F40004400401C450040C7
:1005B000FF000FFF0022200000800040C88F004095
:1005C0000042004070B505460021012000F03AF8D5
:1005D00000240AE0A5F1200000EB8000064A104448
:1005E0000157012000F02EF8641C052CF2DB0021DD
:1005F000012000F027F870BD5C0F000010B5044624
:1006000003E02078FFF7DEFF641C20780028F8D193
:1006100010BD70B504460D460B2C01DC052D00DD28
:1006200070BDC4EBC40040F0800041B2002000F077
:1006300009F845F0400041B2002000F003F800BF87
:10064000EEE7000098B900BF0F4AD26802F010022E
:10065000102AF9D000220D4B1A600B4A916000BF9E
:10066000094AD26802F01002102AF9D00BE000BF4C
:10067000054AD26802F00202002AF9D04022034B58
:100680001A60014A916070470080004000410040BC
:10069000ADF5667D00204FF0E021086143F67F60F4
:1006A000486100208861042008614FF46672AF49F8
:1006B0006846FFF74DFEAE48006840F02000AC49A8
:1006C000086000BFAA48006800F020002028F9D187
:1006D000A848A9490860081D006840F00100091DEC
:1006E0000860A648006840F00E00A4490860A348CE
:1006F0002030006820F01F00A049203108609E488B
:100700001038006840F011009B49103908609A4881
:10071000001F006840F01F009749091F08600E2065
:100720009649091F086095481030006820F01100B4
:10073000924910310860112090491C3108608F489F
:100740001030006840F011008C49103108604FF003
:10075000E020D0F8000140F0804089490860FFF7B0
:10076000E1FD8348006840F001008149086000BF56
:100770007F48006800F001000028F9D0FFF78AFEEA
:100780007B48006840F002007949086000BF784863
:10079000006800F002000228F9D17A48006840F0B1
:1007A000F0007849086077482030006820F0F000B9
:1007B0007449203108600846006840F0C0000860B5
:1007C0007148006820F07F406F4908600846006863
:1007D00040F0884008606C481038006840F0F00035
:1007E00069491039086062483830006840F00100FB
:1007F0005F493831086000BF5D483830006800F05C
:1008000001000028F8D000206049086460480078A2
:10081000C0EBC00101EB0010694601EB800080686D
:100820005A49C86588655A480078C0EBC00101EB99
:100830000010694601EB800040885449086654481E
:100840000078C0EBC00101EB0010694601EB8000AD
:1008500080884E49486643F67F60086540F28120F3
:1008600008640846806840F0030088607DE0FFF778
:1008700001FE47490978C1EBC10202EB01116A464A
:1008800002EB810101F10C00FFF7B8FE3D48001FAB
:10089000006820F030003F49C1F8FC033C48007874
:1008A000C0EBC00101EB00101DF820000001384929
:1008B0000978C1EBC10202EB01111DF8211040EAD9
:1008C00041103449D1F8FC1308433249C1F8FC0304
:1008D0002F480078C0EBC00101EB0010694601EB26
:1008E000800080792C49C1F8FC0329480078C0EBCE
:1008F000C00101EB0010694601EB800080682349CC
:10090000C865886522480078C0EBC00101EB001083
:10091000694601EB800040881C4908661C48007845
:10092000C0EBC00101EB0010694601EB800080883C
:10093000164948664FF47A7000F034F8144800788D
:10094000C0EBC00101EB0010694601EB800055309F
:1009500012490978124A12781143405C0C49087018
:1009600000200F4908700D49087080E7C40B000093
:1009700008E60F404B434F4C2055024000540240C4
:1009800000E100E0005400402C550040008002408F
:1009900002000020005000400050024000000020F3
:1009A0000100002000211AE04FF0E022126942F01D
:1009B00001024FF0E0231A6100BF4FF0E0221269FC
:1009C000120C002AF9D04FF0E022126922F0010245
:1009D0004FF0E0231A6100229A614A1C91B28142D1
:1009E000E2DB7047000000000000005F000000072D
:1009F000000700147F147F14242A7F2A122313086F
:100A0000646236495522500005030000001C224153
:100A1000000041221C0014083E081408083E080883
:100A2000005030000008080808080060600000203E
:100A3000100804023E5149453E00427F4000426199
:100A40005149462141454B311814127F1027454525
:100A500045393C4A4949300171090503364949493C
:100A600036064949291E0036360000005636000079
:100A70000814224100141414141400412214080212
:100A800001510906324979413E7E1111117E7F499B
:100A90004949363E414141227F4141221C7F49491B
:100AA00049417F090909013E4149497A7F080808FF
:100AB0007F00417F41002040413F017F08142241D7
:100AC0007F404040407F020C027F7F0408107F3E41
:100AD0004141413E7F090909063E4151215E7F099E
:100AE000192946464949493101017F01013F4040EA
:100AF000403F1F2040201F3F4038403F63140814F0
:100B00006307087008076151494543007F41410070
:100B100002040810200041417F0004020102044049
:100B200040404040000102040020545454787F4863
:100B30004444383844444420384444487F3854546A
:100B40005418087E0901020C5252523E7F080404D8
:100B50007800447D40002040443D007F1028440040
:100B600000417F40007C041804787C080404783835
:100B7000444444387C14141408081414187C7C0869
:100B80000404084854545420043F4440203C40404E
:100B9000207C1C2040201C3C4030403C4428102835
:100BA000440C5050503C4464544C440008364100BE
:100BB00000007F0000004136080010080810081FE0
:100BC000247C241F01008C000C080800C0120000C7
:100BD0002A2A2A2A2A2A2A2A2A2A2A2A43454353FF
:100BE000333437204C4142332A2A2A2A2A2A2A2AF5
:100BF0002A2A2A2A537065656420202020446972BD
:100C00002D2D2D2D2D202020202D2D2D2033302554
:100C100020202020202046200000050100000000A8
:100C200001008C000C080800802500002A2A2A2ACE
:100C30002A2A2A2A2A2A2A2A434543533334372088
:100C40004C4142332A2A2A2A2A2A2A2A2A2A2A2AAA
:100C50005370656564202020204469722D2D2D2D50
:100C60002D202020202D2D2D203630252020202025
:100C700020204620000106020100000001008C0037
:100C80000C080800003200002A2A2A2A2A2A2A2AC6
:100C90002A2A2A2A43454353333437204C414233CE
:100CA0002A2A2A2A2A2A2A2A2A2A2A2A53706565BF
:100CB00064202020204469722D2D2D2D2D202020F0
:100CC000202D2D2D203830252020202020204620AA
:100CD000000207030200000001008C000C0808005D
:100CE000403D00002A2A2A2A2A2A2A2A2A2A2A2A8F
:100CF00043454353333437204C4142332A2A2A2A6E
:100D00002A2A2A2A2A2A2A2A537065656420202042
:100D1000204469722D2D2D2D2D202020202D2D2DAC
:100D200020393825202020202020462000030804D8
:100D30000300000001008C000C080200000000000D
:100D40002A2A2A2A2A2A2A2A2A2A2A2A434543538D
:100D5000333437204C4142332A2A2A2A2A2A2A2A83
:100D60002A2A2A2A5370656564202020204469724B
:100D70002D2D2D2D2D202020202D2D2D20203025F6
:100D8000202020202020462000040900040000002C
:100D90000000C800080C0400C01200002A2A2A2AF9
:100DA0002A2A2A2A2A2A2A2A434543533334372017
:100DB0004C4142332A2A2A2A2A2A2A2A2A2A2A2A39
:100DC0005370656564202020204469722D2D2D2DDF
:100DD0002D202020202D2D2D2033302520202020B7
:100DE0002020422000050006050000000000C80089
:100DF000080C0400802500002A2A2A2A2A2A2A2AE6
:100E00002A2A2A2A43454353333437204C4142335C
:100E10002A2A2A2A2A2A2A2A2A2A2A2A537065654D
:100E200064202020204469722D2D2D2D2D2020207E
:100E3000202D2D2D2036302520202020202042203E
:100E400000060107060000000000C800080C0400AE
:100E5000003200002A2A2A2A2A2A2A2A2A2A2A2A68
:100E600043454353333437204C4142332A2A2A2AFC
:100E70002A2A2A2A2A2A2A2A5370656564202020D1
:100E8000204469722D2D2D2D2D202020202D2D2D3B
:100E90002038302520202020202042200007020872
:100EA000070000000000C800080C0400403D0000DE
:100EB0002A2A2A2A2A2A2A2A2A2A2A2A434543531C
:100EC000333437204C4142332A2A2A2A2A2A2A2A12
:100ED0002A2A2A2A537065656420202020446972DA
:100EE0002D2D2D2D2D202020202D2D2D2039382564
:100EF00020202020202042200008030908000000B4
:100F00000000C800080C0200000000002A2A2A2A5B
:100F10002A2A2A2A2A2A2A2A4345435333343720A5
:100F20004C4142332A2A2A2A2A2A2A2A2A2A2A2AC7
:100F30005370656564202020204469722D2D2D2D6D
:100F40002D202020202D2D2D203025202020202058
:100F500020422000000904050900000000000000F4
:100F60000000005F00000007000700147F147F14DA
:100F7000242A7F2A1223130864623649552250001E
:100F800005030000001C2241000041221C0014083F
:100F90003E081408083E0808005030000008080801
:100FA0000808006060000020100804023E51494516
:100FB0003E00427F400042615149462141454B314C
:100FC0001814127F1027454545393C4A49493001DC
:100FD000710905033649494936064949291E003633
:100FE0003600000056360000081422410014141484
:100FF00014140041221408020151090632497941B2
:101000003E7E1111117E7F494949363E41414122C0
:101010007F4141221C7F494949417F090909013E1D
:101020004149497A7F0808087F00417F41002040FC
:10103000413F017F081422417F404040407F020C25
:10104000027F7F0408107F3E4141413E7F0909092C
:10105000063E4151215E7F091929464649494931D9
:1010600001017F01013F4040403F1F2040201F3FC2
:101070004038403F63140814630708700807615143
:10108000494543007F4141000204081020004141CE
:101090007F0004020102044040404040000102047D
:1010A0000020545454787F48444438384444442001
:1010B000384444487F3854545418087E0901020CBF
:1010C0005252523E7F0804047800447D4000204084
:1010D000443D007F1028440000417F40007C0418FC
:1010E00004787C0804047838444444387C1414148C
:1010F00008081414187C7C0804040848545454202C
:10110000043F4440203C4040207C1C2040201C3CAC
:101110004030403C44281028440C5050503C44641B
:10112000544C44000836410000007F000000413666
:10113000080010080810081F247C241F5C11000000
:101140000000002004000000C00200006011000048
:101150000400002064040000DC0200000000000025
:040000050000026D88
:00000001FF
