:030000000209FFF3
:0C09FF00787FE4F6D8FD7581090209E953
:1009E9007F0212094E7F021209CE7F021208007F90
:0609F900021208A780EACB
:10094E00E4FEEEC39F5078759018E4FDFC0DBD00DB
:10095E00010CE4B505F7ECB440F3759024E4FCFD0E
:10096E000DBD00010CE4B505F7ECB440F3759042F3
:10097E00E4FCFD0DBD00010CE4B505F7ECB440F34D
:10098E00759081E4FCFD0DBD00010CE4B505F7EC9E
:10099E00B440F3759042E4FCFD0DBD00010CE4B5CE
:1009AE0005F7ECB440F3759024E4FCFD0DBD000199
:0F09BE000CE4B505F7ECB440F37590180E808388
:0109CD002207
:0209CE008F0890
:1009D000E4F509E509C39508500E7F011208A77FC9
:0809E00001120800050980EB7B
:0109E80022EC
:10080000E4FEEEC39F40030208A6759080E4FDFC61
:100810000DBD00010CE4B505F7ECB440F375904054
:10082000E4FCFD0DBD00010CE4B505F7ECB440F3AC
:10083000759020E4FCFD0DBD00010CE4B505F7EC5E
:10084000B440F3759010E4FCFD0DBD00010CE4B55F
:1008500005F7ECB440F3759008E4FCFD0DBD000114
:100860000CE4B505F7ECB440F3759004E4FCFD0D21
:10087000BD00010CE4B505F7ECB440F3759002E45B
:10088000FCFD0DBD00010CE4B505F7ECB440F375BB
:100890009001E4FCFD0DBD00010CE4B505F7ECB4DE
:0608A00040F30E02080205
:0108A600222F
:1008A700E4FEEEC39F400302094D759001E4FDFC91
:1008B7000DBD00010CE4B505F7ECB440F3759002EB
:1008C700E4FCFD0DBD00010CE4B505F7ECB440F305
:1008D700759004E4FCFD0DBD00010CE4B505F7ECD3
:1008E700B440F3759008E4FCFD0DBD00010CE4B5C0
:1008F70005F7ECB440F3759010E4FCFD0DBD000165
:100907000CE4B505F7ECB440F3759020E4FCFD0D5D
:10091700BD00010CE4B505F7ECB440F3759040E475
:10092700FCFD0DBD00010CE4B505F7ECB440F37513
:100937009080E4FCFD0DBD00010CE4B505F7ECB4B7
:0609470040F30E0208A9B6
:01094D002287
:00000001FF
